:020000040800F2
:10000000B8050020ED010008D13A0008953200083B
:10001000CD3A000811080008E5490008000000007A
:10002000000000000000000000000000DD3D0008AE
:10003000E508000800000000413B0008353E0008CC
:10004000070200080702000807020008070200086C
:10005000070200080702000807020008070200085C
:100060000702000807020008350900081508000803
:100070002508000807020008070200080702000818
:10008000070200080702000807020008070200082C
:1000900007020008070200080702000841090008DB
:1000A000070200080702000807020008070200080C
:1000B00007020008070200080702000807020008FC
:1000C00007020008070200080702000807020008EC
:1000D00007020008D54900080702000807020008C7
:1000E00007020008070200080702000807020008CC
:1000F00007020008070200080702000807020008BC
:1001000007020008070200080702000807020008AB
:10011000070200080702000807020008070200089B
:10012000070200080702000807020008070200088B
:10013000070200080702000807020008070200087B
:10014000070200080702000807020008070200086B
:10015000070200080702000807020008070200085B
:10016000070200080702000807020008070200084B
:10017000070200080702000807020008070200083B
:10018000070200080702000807020008070200082B
:10019000070200080000000007020008070200082C
:1001A000070200080702000807020008070200080B
:1001B00007020008070200080702000807020008FB
:1001C00007020008070200080702000807020008EB
:1001D0000702000807020008DFF80CD000F0DEFA82
:1001E00000480047A94A0008B80500200648804793
:1001F00006480047FEE7FEE7FEE7FEE7FEE7FEE70C
:10020000FEE7FEE7FEE7FEE7B13E0008D901000881
:100210002DE9F05F0546002092469B46884606463B
:10022000814640241BE0284641464746224600F0CE
:1002300005FA53465A46C01A914110D31146184642
:10024000224600F0ECF92D1A67EB01084F462246D2
:100250000120002100F0E3F917EB00094E41201EB8
:10026000A4F10104DFDC484631462A464346BDE896
:10027000F09F40EA01039B0703D009E008C9121F61
:1002800008C0042AFAD203E011F8013B00F8013B50
:10029000521EF9D27047D2B201E000F8012B491E7C
:1002A000FBD270470022F6E710B513460A46044613
:1002B0001946FFF7F0FF204610BD421C10F8011B45
:1002C0000029FBD1801A704730B504460020034650
:1002D00000E05B1C934203D2E05CCD5C401BF8D095
:1002E00030BD2DE9FE4F804681EA0300C00F0C4669
:1002F000009021F0004123F00045B8EB0200A94135
:1003000005D24046214690461C460B46024623F045
:100310000040104347D0270DC7F30A00C3F30A512A
:100320000290401A019040286BDAC3F3130040F4A6
:10033000801B0098924620B10023D2EB030A63EBA6
:100340000B0B01985946C0F14002504600F067F986
:1003500006460D4650465946019A00F07FF910EBCB
:1003600008006141002487EA115284EAE7731A43C6
:1003700040D0009A62B3019A012A4FEA075215DC75
:10038000001B61EB02014FF0004202EA0752CDE987
:100390000042001C41F5801132462B4600F07FF9E7
:1003A00003B0BDE8F08F40462146F9E7001B61EB42
:1003B0000201001C41F5801300185B412018A2F5D2
:1003C000001747EB030140EAD570B6196D4111E003
:1003D0006D084FEA360645EAC0754FEA0752001B22
:1003E00061EB0201001C41F5801149084FEA300021
:1003F0000019514132462B4603B0BDE8F04F00F0E2
:100400003FB90098012240000023D0EB020263EBC9
:10041000E073009821464FEAE074B8EB000061EB0E
:100420000401E9E783F000435BE781F0004158E70E
:100430002DE9FE4F81EA030404F0004421F000415D
:1004400000944FF0000B23F0004350EA01045ED00B
:1004500052EA03045BD0C3F30A54C1F30A552C4497
:10046000A4F2F3340194A0FB0254C1F3130141F44C
:100470008011C3F3130343F4801301FB024400FB18
:10048000034E840A970A44EA815447EA8357A4FB3F
:10049000076802958D0A05FB07854FEA932C04FB3C
:1004A0000C542705029D4FEA065847EA1637B5EB6C
:1004B00008056EEB070C870E920E47EA811742EA99
:1004C0008312A7FB0201B6EB0B0164EB00042B0DBA
:1004D00043EA0C335E1844EB1C50DA465146E7FB06
:1004E0000201C5F313044FEA0B3343EA14534FEAF6
:1004F0000432019C43EA0603A4F10C040294009C1C
:10050000CDE900B400F0CBF803B0BDE8F08F0020D7
:100510000146F9E72DE9F04D81EA030404F0004BB0
:1005200021F0004514464FF0000A23F0004150EA44
:10053000050220D054EA01021DD0C5F30A57024635
:10054000C5F31303C1F31300C1F30A5640F4801539
:1005500043F48013A7EB0608101BD64608F2FD38BB
:1005600073EB050002D308F1010801E092185B412A
:10057000B8F1000F03DA00200146BDE8F08D00203D
:100580004FF48011064684460EE0171B73EB0507F7
:1005900005D3121B63EB050306434CEA010C490823
:1005A0004FEA300092185B4150EA0107EDD152EA60
:1005B000030012D082EA040083EA0501084305D053
:1005C000101BAB4106D20122002306E000224FF0AF
:1005D000004302E06FF0010253101AEB06004CEBEF
:1005E000085110EB0A0041EB0B01BDE8F04D00F0A3
:1005F00047B830B50B46014600202022012409E00F
:1006000021FA02F59D4205D303FA02F5491B04FACB
:1006100002F52844151EA2F10102F1DC30BD202AAA
:1006200004DB203A00FA02F1002070479140C2F149
:10063000200320FA03F3194390407047202A04DB7B
:10064000203A21FA02F00021704721FA02F3D0404B
:10065000C2F120029140084319467047202A06DB68
:10066000CB17203A41FA02F043EAE07306E041FA80
:1006700002F3D040C2F1200291400843194670476E
:1006800010B5141E73F1000408DA401C41F100019A
:1006900092185B411A4301D120F0010010BD2DE9F1
:1006A000F04D92469B4611B1B1FA81F202E0B0FAE8
:1006B00080F220329046FFF7B2FF04460F4640EA30
:1006C0000A0041EA0B0153465A46084313D011462B
:1006D00053EA010019D0C8F140025046FFF7AEFFBF
:1006E00005460E46504659464246FFF798FF0843D6
:1006F00005D0012004E020463946BDE8F08D0020F9
:10070000054346EAE0762C4337430A986305E40A3A
:10071000A0EB08000022FD0A44EA47540A3002D543
:1007200000200146E9E7010510196941DDE90845A6
:1007300000196941BDE8F04DA2E7C1F30A52C1F3C7
:10074000130140F2FF3341F480119A4202DA002093
:100750000146704740F233439A42A2F2334202DC30
:100760005242FFF76BBFFFF75ABF000030B5041EBF
:1007700071F1000404DB4FF00044404264EB0101DE
:10078000141E73F1000405DB1C464FF00043524277
:1007900063EB0403994208BF904230BD1CB5094881
:1007A0000090094801900546009C06E0E06840F092
:1007B000010394E8070098471034AC42F6D3FFF7E2
:1007C0000FFD0000244E0508444E050880B584B096
:1007D00003900291019200930399502002F0E8FEE9
:1007E0000299512002F0E4FE0199522002F0E0FE4D
:1007F0000099532002F0DCFEBDF80C00BDF8041097
:1008000003F004F8222002F03DFF04B080BD000098
:10081000FFE7FEE780B540F22800C2F2000000F0DA
:100820004FF980BD80B540F28800C2F2000000F0B0
:1008300047F980BD84B003900398006840F20741F7
:10084000C4F20201884206D8FFE740F60000C4F275
:100850000200009005E040F62000C4F20200009083
:10086000FFE7009802900398007808384CF6CD41D5
:10087000CCF6CC41A0FB011000090190029803992D
:100880004A6C22F0030210448864039940F6800009
:10089000C4F20200C864019800F01F0101208840E2
:1008A0000399086504B0704782B0019001980079FF
:1008B0000090009940F6FC00C4F2020000EB8100B9
:1008C00001994865019940F64010C4F2020088651C
:1008D0000098013800F01F01012088400199C86587
:1008E00002B070477047000080B584B00390029159
:1008F00001920399029B08461A46FFF767FF41F2EF
:100900002801C4F60001102000900860722002F057
:100910005DFE9DF8050002F059FE9DF8040002F00E
:1009200055FE009841F21801C4F60001086004B0B9
:1009300080BD000080B5102000F042FA80BD0000AC
:1009400080B5202000F03CFA402000F039FA80BD4C
:1009500081B0EFF3108072B60090FFE7FEE7000071
:1009600082B0019000208DF80300019890F82500D6
:10097000022807D0FFE701990420C86301208DF801
:1009800003002DE001980168086820F00E0008605F
:100990000198816C086820F48070086001980168F3
:1009A000086820F0010008600198016C406C00F0BC
:1009B0001F020120904048600198C16C006D4860A2
:1009C0000198406D58B1FFE70198416D086820F427
:1009D000807008600198816DC06D4860FFE7FFE797
:1009E0000199012081F82500FFE70199002081F895
:1009F0002400FFE79DF8030002B0704780B582B085
:100A0000019000208DF80300019890F8250002283D
:100A100011D0FFE701990420C8630199012081F8F2
:100A20002500FFE70199002081F82400FFE701205D
:100A30008DF803003FE001980168086820F00E007F
:100A4000086001980168086820F0010008600198BA
:100A5000816C086820F4807008600198016C406C1B
:100A600000F01F020120904048600198C16C006DA9
:100A700048600198406D58B1FFE70198416D0868E2
:100A800020F4807008600198816DC06D4860FFE7B8
:100A90000199012081F82500FFE70199002081F8E4
:100AA0002400FFE70198806B20B1FFE70198816B7C
:100AB0008847FFE7FFE79DF8030002B080BD000014
:100AC00080B584B003900398006C0068029003988E
:100AD00000680068019002980399496C01F01F01B9
:100AE000C8404007002825D5FFE79DF804004007CF
:100AF00000281FD5FFE703980068006880060028DB
:100B000007D4FFE703980168086820F00400086034
:100B1000FFE70398016C406C00F01F020420904036
:100B200048600398006B20B1FFE70398016B88478A
:100B3000FFE76EE002980399496C01F01F01C8407D
:100B4000800700282FD5FFE79DF8040080070028C4
:100B500029D5FFE7039800680068800600280BD4B9
:100B6000FFE703980168086820F00A00086003990D
:100B7000012081F82500FFE70398016C406C00F02C
:100B80001F02022090404860FFE70399002081F88F
:100B90002400FFE70398C06A20B1FFE70398C16A09
:100BA0008847FFE734E002980399496C01F01F0180
:100BB000C8400007002829D5FFE79DF8040000077A
:100BC000002823D5FFE703980168086820F00E008D
:100BD00008600398026C406C00F01F01012000FACD
:100BE00001F151600399C863039981F82500FFE77B
:100BF0000399002081F82400FFE70398406B20B19F
:100C0000FFE70398416B8847FFE700E0FFE7FFE756
:100C1000FFE704B080BD000080B584B00290029868
:100C200020B9FFE701208DF80F009CE002980068D2
:100C300040F20741C4F20201884218D8FFE7029946
:100C400008684FF6F872CBF6FD7210444CF6CD42B0
:100C5000CCF6CC42A0FB02026FF0030000EA920047
:100C6000486402990020C4F20200086418E0029966
:100C700008684FF6F832CBF6FD7210444CF6CD42C0
:100C8000CCF6CC42A0FB02026FF0030000EA920017
:100C90004864029940F20040C4F202000864FFE791
:100CA0000299022081F825000298006800680190EE
:100CB000019847F6F0718843019002998868D1F84D
:100CC0000CC00B694A6940EA0C00184310438A695A
:100CD0001043CA691043096A01430198084301900F
:100CE00001980299096808600298FFF7A3FD02982D
:100CF0008068B0F5804F04D1FFE70299002048607A
:100D0000FFE702990879896C08600298C16C006D50
:100D100048600298406888B1FFE70298406804285C
:100D20000CD8FFE70298FFF7BFFD0298416D002045
:100D300008600298816DC06D486007E0029900204C
:100D40004865029988650299C865FFE70299002005
:100D5000C863029A012182F82510029981F82400C3
:100D60008DF80F00FFE79DF80F0004B080BD000074
:100D700080B584B0039000F021FA029003980190AE
:100D80000198013048B1FFE740F20C00C2F20000C8
:100D90000168019808440190FFE7FFE700F00EFAB0
:100DA0000299401A0199884201D2FFE7F6E704B0A0
:100DB00080BD000081B0ADF8020001B070470000B6
:100DC00080B582B0ADF8060040F21440C4F20100D4
:100DD0000068BDF8061008420CD0FFE7BDF8060019
:100DE00040F21441C4F201010860BDF80600FFF7AB
:100DF000E1FFFFE702B080BD8BB00A9009910020AF
:100E00000890FFE7099800680899C840002800F09A
:100E1000A581FFE709980068089A012191400840E0
:100E200007900798002800F09581FFE7099840682F
:100E300000F00300012807D0FFE70998406800F0A0
:100E4000030002282FD1FFE70A98806806900898CF
:100E50004100032000FA01F10698884306900998A2
:100E6000C0680899490000FA01F106980843069005
:100E700006980A9988600A984068069008990120A7
:100E800000FA01F106988843069009984068C0F37B
:100E90000010089900FA01F1069808430690069898
:100EA0000A994860FFE70998406800F003000328AA
:100EB00018D0FFE70A98C068069008984100032000
:100EC00000FA01F10698884306900998806808990D
:100ED000490000FA01F106980843069006980A991D
:100EE000C860FFE70998406800F00300022826D197
:100EF000FFE70A9808996FF0030202EA51010844DB
:100F0000006A0690089800F0070081000F2000FAA0
:100F100001F106988843069009980069089901F044
:100F20000701890000FA01F1069808430690069827
:100F30000A99089B02EA530211440862FFE70A98E3
:100F40000068069008984100032000FA01F1069815
:100F5000884306900998406800F00300089949000A
:100F600000FA01F106980843069006980A9908606D
:100F7000099880798007002800F0EB80FFE7FFE701
:100F800041F26000C4F20200016841F00101016019
:100F9000006800F0010005900598FFE7089820F030
:100FA00003000821C4F2010140580690089800F09F
:100FB000030081000F2000FA01F106988843069093
:100FC0000A98B0F1904F03D1FFE70020049042E06F
:100FD0000A9840F20041C4F60001884203D1FFE7BD
:100FE0000120039034E00A9840F60001C4F60001A5
:100FF000884203D1FFE70220029026E00A9840F6DB
:101000000041C4F60001884203D1FFE703200190AC
:1010100018E00A9841F20001C4F60001884203D1A9
:10102000FFE7042000900AE00A9941F20042C4F66A
:1010300000020620914208BF05200090FFE70098BB
:101040000190FFE701980290FFE702980390FFE705
:1010500003980490FFE70498089901F003018900C0
:1010600000FA01F10698084306900698089921F0C5
:1010700003010822C4F20102885040F20840C4F281
:101080000100006806900799069888430690099821
:101090008079C006002805D5FFE707990698084320
:1010A0000690FFE7069840F20841C4F2010108608B
:1010B00040F20C40C4F201000068069007990698BF
:1010C00088430690099880798006002805D5FFE7B7
:1010D0000799069808430690FFE7069840F20C41EE
:1010E000C4F20101086040F20440C4F2010000684B
:1010F000069007990698884306900998807980079A
:10110000002805D5FFE70799069808430690FFE7F2
:10111000069840F20441C4F20101086040F2004028
:10112000C4F201000068069007990698884306906B
:1011300009988079C00728B1FFE707990698084306
:101140000690FFE7069840F20041C4F201010860F2
:10115000FFE7FFE708980130089053E60BB07047AF
:1011600082B00190ADF8021001980069BDF802103C
:10117000084204D0FFE701208DF8010003E00020C1
:101180008DF80100FFE79DF8010002B070470000F4
:1011900082B00190ADF802108DF801209DF8010099
:1011A00028B1FFE7BDF802000199886104E0BDF8AD
:1011B000020001998862FFE702B0704740F2B01068
:1011C000C2F200000068704740F20C00C2F200005A
:1011D000026840F2B011C2F20001086810440860D1
:1011E0007047000080B582B0002000908DF80700A5
:1011F000032000F09FF8009800F00EF820B1FFE700
:1012000001208DF8070002E000F04AF8FFE79DF8A2
:10121000070002B080BD000080B582B001900020C0
:101220008DF8030040F20C00C2F20000006878B3B1
:10123000FFE740F20000C2F20000006840F20C013B
:10124000C2F200010A684FF47A71B1FBF2F1B0FB0F
:10125000F1F001F009FAB0B9FFE701980F280DD8B5
:10126000FFE701994FF0FF30002200F04BF80198A2
:1012700040F21001C2F20001086003E001208DF885
:101280000300FFE703E001208DF80300FFE703E020
:1012900001208DF80300FFE79DF8030002B080BD38
:1012A00080B582B0FFE741F26000C4F2020001683D
:1012B00041F001010160006800F001000190019817
:1012C000FFE7FFE741F25800C4F20200016841F075
:1012D00080510160006800F0805000900098FFE7A6
:1012E000052000F027F800F007F902B080BD0000EB
:1012F00080B582B08DF807009DF9070003F074FBFC
:1013000002B080BD80B586B08DF8170004910392BD
:1013100003F082FB02909DF9170001900298049956
:10132000039A02F0D7FB0146019803F07DFB06B05B
:1013300080BD000080B582B00190019803F096FB5B
:1013400002B080BD85B00390039800285ED1FFE70E
:1013500047F20000C4F20000006800F4C060B0F57D
:10136000806F49D1FFE747F28001C4F200010868AD
:1013700020F48070086047F20002C4F20002116895
:10138000012060F34A21116040F20001C2F2000125
:101390000968322251434DF68362C4F21B32A1FB2D
:1013A000022100EB91400290FFE747F21400C4F2E3
:1013B00000000168002049050029019006D5FFE7DB
:1013C0000298002818BF01200190FFE70198C0078C
:1013D00020B1FFE7029801380290E6E747F21400D7
:1013E000C4F2000000684005002804D5FFE7032090
:1013F0008DF813007CE008E047F28001C4F20001A0
:10140000086820F480700860FFE76DE00398B0F58D
:10141000007F5ED1FFE747F20000C4F200000068E1
:1014200000F4C060B0F5806F49D1FFE747F280015A
:10143000C4F20001086840F48070086047F20002BE
:10144000C4F200021168012060F34A21116040F2E9
:101450000001C2F200010968322251434DF6836255
:10146000C4F21B32A1FB022100EB91400290FFE786
:1014700047F21400C4F20000016800204905002969
:10148000009006D5FFE70298002818BF01200090C1
:10149000FFE70098C00720B1FFE7029801380290EB
:1014A000E6E747F21400C4F2000000684005002897
:1014B00004D5FFE703208DF8130019E008E047F298
:1014C0008001C4F20001086840F480700860FFE702
:1014D00009E047F20001C4F200010868022262F349
:1014E0004A200860FFE7FFE700208DF81300FFE7C0
:1014F0009DF8130005B0704747F20801C4F20001DF
:10150000086840F4804008607047000080B586B0ED
:10151000059000208DF80B008DF80A000598807862
:101520000007002840F1B580FFE700208DF8090092
:1015300041F25800C4F202000068C000002813D431
:10154000FFE7FFE741F25800C4F20200016841F0F2
:1015500080510160006800F0805001900198FFE721
:1015600001208DF80900FFE747F20001C4F20001F5
:10157000086840F480700860FFF720FE0390FFE7E2
:1015800047F20000C4F200000068C00500280CD437
:10159000FFE7FFF713FE0399401A032804D3FFE780
:1015A00003208DF80B0000E0EAE79DF80B0000280F
:1015B0005BD1FFE741F29000C4F20200006800F442
:1015C000407004900498C8B1FFE704980599096D2C
:1015D000884213D0FFE741F29001C4F2020108688B
:1015E00020F440700490086840F480300860086877
:1015F00020F48030086004980860FFE79DF8100030
:10160000C007E0B1FFE7FFF7D9FD0390FFE741F224
:101610009000C4F202000068800700280ED4FFE7A3
:10162000FFF7CCFD0399401A41F28931884204D377
:10163000FFE703208DF80B0000E0E8E7FFE79DF8E7
:101640000B0060B9FFE741F29001C4F202010868A3
:1016500020F44070059A126D1043086004E09DF874
:101660000B008DF80A00FFE704E09DF80B008DF8F1
:101670000A00FFE79DF80900012809D1FFE741F2C0
:101680005801C4F20201086820F080500860FFE7AA
:10169000FFE705980078C00760B1FFE741F28801D5
:1016A000C4F20201086820F00300059A5268104352
:1016B0000860FFE705980078800700280CD5FFE751
:1016C00041F28801C4F20201086820F00C00059A7A
:1016D000926810430860FFE70598007840070028EB
:1016E0000CD5FFE741F28801C4F20201086820F03E
:1016F0003000059AD26810430860FFE7059800782B
:10170000000700280CD5FFE741F28801C4F202016E
:10171000086820F0C000059A126910430860FFE7CE
:1017200005980078C00600280CD5FFE741F2880133
:10173000C4F20201086820F44070059A526910430F
:101740000860FFE705980078800600280CD5FFE7C1
:1017500041F28801C4F20201086820F44060059A51
:10176000926910430860FFE705980078400600285A
:101770000CD5FFE741F28801C4F20201086820F4A9
:101780004050059AD26910430860FFE70598007839
:10179000000600280CD5FFE741F28801C4F20201DF
:1017A000086820F44040059A126A10430860FFE779
:1017B00005984078C00760B1FFE741F28801C4F2A4
:1017C0000201086820F44030059A526A104308600C
:1017D000FFE705988078800700280CD5FFE741F2E5
:1017E0009C01C4F20201086820F00300059A926A85
:1017F00010430860FFE705984078800700280CD563
:10180000FFE741F28801C4F20201086820F4402099
:10181000059AD26A10430860FFE7059840784007B0
:1018200000281BD5FFE741F28801C4F202010868D5
:1018300020F44010059A126B104308600598006B65
:10184000B0F5801F09D1FFE741F20C01C4F202019B
:10185000086840F480100860FFE7FFE705984078CB
:10186000000700281BD5FFE741F28801C4F20201FE
:10187000086820F44000059A526B104308600598F0
:10188000406BB0F5800F09D1FFE741F20C01C4F2C3
:101890000201086840F480100860FFE7FFE7059840
:1018A0004078C00600281BD5FFE741F28801C4F24A
:1018B0000201086820F04070059A926B104308609E
:1018C0000598806BB0F1807F09D1FFE741F20C01F0
:1018D000C4F20201086840F480100860FFE7FFE7E7
:1018E00005984078800600281BD5FFE741F2880163
:1018F000C4F20201086820F04060059AD26B1043E0
:1019000008600598C06BB0F1006F09D1FFE741F2A4
:101910000C01C4F20201086840F480100860FFE77F
:10192000FFE705984078400600281BD5FFE741F205
:101930008801C4F20201086820F04060059A126C28
:10194000104308600598006CB0F1006F09D1FFE703
:1019500041F20C01C4F20201086840F480100860F2
:10196000FFE7FFE705984078000600281BD5FFE752
:1019700041F28801C4F20201086820F04050059A43
:10198000526C104308600598406CB0F1805F09D13B
:10199000FFE741F20C01C4F20201086840F4803014
:1019A0000860FFE7FFE705988078C007D8B1FFE738
:1019B00041F28801C4F20201086820F04040059A13
:1019C000926C104308600598806CB0F1804F09D18B
:1019D000FFE741F20C01C4F20201086840F48030D4
:1019E0000860FFE7FFE705988078400700281BD5CF
:1019F000FFE741F29C01C4F20201086820F44010A4
:101A0000059AD26C104308600598C06CB0F5001FB1
:101A100009D1FFE741F20C01C4F20201086840F469
:101A200080100860FFE7FFE79DF80A0006B080BD60
:101A300080B586B00490039100200090049820B9EE
:101A4000FFE701208DF8170081E1039842F20001C1
:101A5000C4F20201096801F00F01884216D9FFE7BC
:101A600042F20000C4F20200016821F00F01039A63
:101A700011430160006800F00F000399884204D010
:101A8000FFE701208DF8170061E1FFE70498007877
:101A9000C007002800F0A380FFE7049840680328EF
:101AA00039D1FFE741F20000C4F202000068800172
:101AB000002804D4FFE701208DF8170047E102F069
:101AC000D9F8019001984BF20141C0F2C44188421B
:101AD00020D3FFE741F20800C4F20200006810F0D2
:101AE000F00F0AD0FFE7049800788007002810D58F
:101AF000FFE70498806860B9FFE741F20801C4F28B
:101B000002010868082262F3071008608020009034
:101B1000FFE7FFE738E00498406802280ED1FFE7AE
:101B200041F20000C4F2020000688003002804D4DF
:101B3000FFE701208DF8170009E10DE041F20000F8
:101B4000C4F2020000684005002804D4FFE7012029
:101B50008DF81700FBE0FFE700F02CF901900198E9
:101B60004BF20141C0F2C44188420CD3FFE741F27D
:101B70000801C4F202010868082262F30710086035
:101B800080200090FFE7FFE741F20801C4F2020164
:101B9000086820F00300049A526810430860FFF7B9
:101BA0000DFB0290FFE741F20800C4F2020000685A
:101BB00000F00C0004994968B0EB810F0ED0FFE7EC
:101BC000FFF7FCFA0299401A41F28931884204D3A6
:101BD000FFE703208DF81700B9E0E4E7FFE704987A
:101BE0000078800700282CD5FFE70498007840078C
:101BF000002809D5FFE741F20801C4F20201086894
:101C000040F4E0600860FFE70498007800070028CF
:101C10000BD5FFE741F20801C4F20201086840F465
:101C2000E06020F460500860FFE741F20801C4F270
:101C30000201086820F0F000049A926810430860DE
:101C40000DE00098802809D1FFE741F20801C4F2B5
:101C50000201086820F0F0000860FFE7FFE7039842
:101C600042F20001C4F20201096801F00F0188424A
:101C700028D2FFE742F20001C4F20201086820F016
:101C80000F00039A10430860FFF798FA0290FFE7ED
:101C900042F20000C4F20200006800F00F00039955
:101CA00088420ED0FFE7FFF789FA0299401A41F205
:101CB0008931884204D3FFE703208DF8170046E0FE
:101CC000E6E7FFE704980078400700280CD5FFE717
:101CD00041F20801C4F20201086820F4E060049AAD
:101CE000D26810430860FFE70498007800070028D6
:101CF0000DD5FFE741F20801C4F20201086820F4A3
:101D00006050049A126940EAC2000860FFE700F0E0
:101D100051F841F20801C4F202010968C9B20A0986
:101D200046F6D431C0F60001895C01F01F01C840BD
:101D300040F20001C2F20001086040F21000C2F25D
:101D400000000068FFF768FA8DF81700FFE79DF8BC
:101D5000170006B080BD000040F20000C2F2000093
:101D60000068704780B5FFF7F7FF41F20801C4F241
:101D700002010968C1F3022246F6E431C0F600010F
:101D8000895C01F01F01C84080BD000080B5FFF7ED
:101D9000E3FF41F20801C4F202010968C1F3C22263
:101DA00046F6E431C0F60001895C01F01F01C8402D
:101DB00080BD000086B041F20800C4F20200006855
:101DC00000F00C00042806D1FFE742F20040C0F208
:101DD000F400019069E041F20800C4F202000068DA
:101DE00000F00C00082806D1FFE741F20020C0F205
:101DF0007A00019058E041F20800C4F20200006845
:101E000000F00C000C284BD1FFE741F20C00C4F2AB
:101E10000200016801F0030104910068C1B20120D1
:101E200000EB1110029004980090022815D0FFE7F3
:101E30000098032812D1FFE7029941F20020C0F276
:101E40007A00B0FBF1F041F20C01C4F20201096822
:101E5000C1F306214843059011E0FFE7029942F2E1
:101E60000040C0F2F400B0FBF1F041F20C01C4F20A
:101E700002010968C1F3062148430590FFE741F2DA
:101E80000C00C4F20200006800F0C061022000EB08
:101E90001160039005980399B0FBF1F0019002E006
:101EA00000200190FFE7FFE7FFE7019806B07047C9
:101EB000B0B588B00690069820B9FFE701208DF8EC
:101EC0001F00CCE306980078C007002800F09B8034
:101ED000FFE741F20800C4F20200006800F00C00C5
:101EE000049041F20C00C4F20200006800F003000C
:101EF000039004980C2804D1FFE70398032804D02A
:101F0000FFE70498082812D1FFE741F20000C4F26D
:101F1000020000688003002808D5FFE706984068A3
:101F200020B9FFE701208DF81F0098E36AE0FFE782
:101F300006984068B0F5803F09D1FFE741F2000103
:101F4000C4F20201086840F48030086020E006987E
:101F50004068B0F5A02F0DD1FFE741F20001C4F2B7
:101F60000201086840F480200860086840F480306E
:101F700008600CE041F20001C4F20201086820F49C
:101F800080300860086820F480200860FFE7FFE7E1
:101F9000FFE706984068D0B1FFE7FFF70FF905901B
:101FA000FFE741F20000C4F202000068800300284D
:101FB0000CD4FFE7FFF702F90599401A652804D30E
:101FC000FFE703208DF81F0049E3EAE719E0FFF778
:101FD000F5F80590FFE741F20000C4F20200006846
:101FE000800300280CD5FFE7FFF7E8F80599401AB1
:101FF000652804D3FFE703208DF81F002FE3EAE7ED
:10200000FFE7FFE7FFE7069800788007002840F128
:102010009F80FFE741F20800C4F20200006800F070
:102020000C00049041F20C00C4F20200006800F0C1
:102030000300039004980C2804D1FFE703980228BA
:1020400004D0FFE7049804282CD1FFE741F20000F8
:10205000C4F2020000684005002808D5FFE7069892
:10206000C06820B9FFE701208DF81F00F7E241F2B8
:102070000401C4F20201086820F0FE40069A1269C9
:1020800040EA0260086040F21000C2F200000068FE
:10209000FFF7C2F820B1FFE701208DF81F00DEE254
:1020A000FFE754E00698C06870B3FFE741F2000113
:1020B000C4F20201086840F480700860FFF77EF8FF
:1020C0000590FFE741F20000C4F2020000684005FD
:1020D00000280CD4FFE7FFF771F80599401A032890
:1020E00004D3FFE703208DF81F00B8E2EAE741F2CE
:1020F0000401C4F20201086820F0FE40069A126949
:1021000040EA0260086021E041F20001C4F20201ED
:10211000086820F480700860FFF750F80590FFE72A
:1021200041F20000C4F202000068400500280CD50E
:10213000FFE7FFF743F80599401A032804D3FFE7A8
:1021400003208DF81F008AE2EAE7FFE7FFE7FFE7D9
:10215000069800780007002849D5FFE706984069EF
:1021600010B3FFE741F29401C4F20201086840F0A5
:1021700001000860FFF722F80590FFE741F29400A4
:10218000C4F202000068800700280CD4FFE7FFF7C4
:1021900015F80599401A032804D3FFE703208DF8AA
:1021A0001F005CE2EAE721E041F29401C4F202017F
:1021B000086820F001000860FFF700F80590FFE7CD
:1021C00041F29400C4F202000068800700280CD598
:1021D000FFE7FEF7F3FF0599401A032804D3FFE752
:1021E00003208DF81F003AE2EAE7FFE7FFE70698D1
:1021F00000784007002840F1C680FFE700208DF8F6
:102200000B0041F25800C4F202000068C000002830
:1022100013D4FFE7FFE741F25800C4F2020001685F
:1022200041F080510160006800F0805001900198F9
:10223000FFE701208DF80B00FFE747F20000C4F232
:1022400000000068C005002822D4FFE747F2000123
:10225000C4F20001086840F480700860FEF7AEFF29
:102260000590FFE747F20000C4F200000068C005D7
:1022700000280CD4FFE7FEF7A1FF0599401A0328B8
:1022800004D3FFE703208DF81F00E8E1EAE7FFE74A
:10229000FFE706988068012809D1FFE741F2900125
:1022A000C4F20201086840F0010008601FE00698CF
:1022B000806805280DD1FFE741F29001C4F20201C8
:1022C000086840F004000860086840F001000860F9
:1022D0000CE041F29001C4F20201086820F0010014
:1022E0000860086820F004000860FFE7FFE7FFE7E8
:1022F00006988068E0B1FFE7FEF760FF0590FFE712
:1023000041F29000C4F202000068800700280ED459
:10231000FFE7FEF753FF0599401A41F289318842E1
:1023200004D3FFE703208DF81F0098E1E8E71BE0E6
:10233000FEF744FF0590FFE741F29000C4F202006F
:102340000068800700280ED5FFE7FEF737FF0599E4
:10235000401A41F28931884204D3FFE703208DF807
:102360001F007CE1E8E7FFE79DF80B00012809D199
:10237000FFE741F25801C4F20201086820F08050E2
:102380000860FFE7FFE7069800788006002849D537
:10239000FFE70698806910B3FFE741F29801C4F2A5
:1023A0000201086840F001000860FEF707FF059091
:1023B000FFE741F29800C4F202000068800700289D
:1023C0000CD4FFE7FEF7FAFE0599401A032804D360
:1023D000FFE703208DF81F0041E1EAE721E041F229
:1023E0009801C4F20201086820F001000860FEF7BD
:1023F000E5FE0590FFE741F29800C4F20200006894
:10240000800700280CD5FFE7FEF7D8FE0599401A93
:10241000032804D3FFE703208DF81F001FE1EAE73C
:10242000FFE7FFE70698C069002800F01481FFE786
:1024300041F20800C4F20200006800F00C000C2811
:1024400000F0B080FFE70698C06902287CD1FFE762
:1024500041F20001C4F20201086820F080700860B7
:10246000FEF7ACFE0590FFE741F20000C4F2020067
:102470000068800100280CD5FFE7FEF79FFE059954
:10248000401A032804D3FFE703208DF81F00E6E07D
:10249000EAE741F20C01C4F20201086848F20C02BA
:1024A000C0F29F121040DDF818C0DCF82020DCF8E4
:1024B0002450DCF828E0DCF82C306FF00F0404EB3B
:1024C0000514224342EA0E22DCF8304040F2000EAE
:1024D000CFF6E07E0EEA045EAEF5001E42EA0E0282
:1024E000DCF834E04FF07E4C0CEA0E6C0CF17E4CC4
:1024F00042EA0C0242EAC3621043086041F2000261
:10250000C4F20202106840F080701060086840F069
:1025100080700860FEF752FE0590FFE741F2000070
:10252000C4F202000068800100280CD4FFE7FEF727
:1025300045FE0599401A032804D3FFE703208DF8D0
:102540001F008CE0EAE72CE041F20001C4F2020136
:10255000086820F080700860FEF730FE0590FFE705
:1025600041F20000C4F202000068800100280CD58E
:10257000FFE7FEF723FE0599401A032804D3FFE77F
:1025800003208DF81F006AE0EAE741F20C01C4F273
:10259000020108684FF6FC72CFF6EE621040086048
:1025A000FFE757E00698C069012804D1FFE7012042
:1025B0008DF81F0053E041F20C00C4F202000068E5
:1025C0000390039800F003000699096A88423BD102
:1025D000FFE7039800F0F00006994A6A6FF00F01D8
:1025E00001EB021188422FD1FFE7039800F4FE406F
:1025F0000699896AB0EB012F26D1FFE7039800F016
:1026000078400699C96AB0EBC16F1DD1FFE7039806
:1026100000F4C00006990A6B0021CFF6E07101EAD0
:102620000251A1F5001188420ED1FFE7039800F096
:10263000C06006994A6B4FF07E4101EA026101F1E8
:102640007E41884204D0FFE701208DF81F0006E09C
:10265000FFE7FFE7FFE700208DF81F00FFE79DF889
:102660001F0008B0B0BD000080B582B00190019895
:1026700001F0B6FB02B080BD83B00190FFE7019886
:1026800090F88400012804D1FFE702208DF80B00A8
:102690002CE00199012081F88400FFE7FFE7019910
:1026A0002420C1F888000198006800680090019813
:1026B0000168086820F001000860009820F00050D0
:1026C0000090019900204866009801990968086007
:1026D00001992020C1F88800FFE70199002081F8C6
:1026E0008400FFE700208DF80B00FFE79DF80B004A
:1026F00003B0704782B00190ADF8021002B070478D
:1027000081B0009001B0704780B584B00290019113
:10271000FFE7029890F88400012804D1FFE7022027
:102720008DF80F0032E00299012081F88400FFE764
:10273000FFE702992420C1F8880002980068006829
:10274000009002980168086820F001000860029873
:102750000068806820F06060019908430299096868
:102760008860029801F0AEFB009802990968086041
:1027700002992020C1F88800FFE70299002081F823
:102780008400FFE700208DF80F00FFE79DF80F00A1
:1027900004B080BD80B584B002900191FFE702983B
:1027A00090F88400012804D1FFE702208DF80F0083
:1027B00032E00299012081F88400FFE7FFE70299E7
:1027C0002420C1F8880002980068006800900298F0
:1027D0000168086820F001000860029800688068BD
:1027E00020F06040019908430299096888600298C6
:1027F00001F068FB0098029909680860029920209E
:10280000C1F88800FFE70299002081F88400FFE703
:1028100000208DF80F00FFE79DF80F0004B080BD89
:1028200081B0009001B0704781B0009001B0704756
:1028300081B0009001B0704780B590B00F900F98B4
:102840000068C0690E900F98006800680D900F989E
:10285000006880680C900E9840F60F0108400B90BD
:102860000B98E0B9FFE79DF838008006002815D5E1
:10287000FFE79DF834008006002806D4FFE79DF8A6
:102880003300C006002809D5FFE70F98406F20B13C
:10289000FFE70F98416F8847FFE77AE2FFE70B9861
:1028A000002800F00C81FFE70C980121C1F2000123
:1028B000084209D1FFE70D9840F22011C0F2004113
:1028C000084200F0FC80FFE79DF83800C00788B19F
:1028D000FFE79DF83500C00760B1FFE70F9801687A
:1028E000012008620F99D1F8900040F00100C1F872
:1028F0009000FFE79DF838008007002811D5FFE71A
:102900009DF83000C00760B1FFE70F980168022012
:1029100008620F99D1F8900040F00400C1F89000CF
:10292000FFE79DF838004007002811D5FFE79DF824
:102930003000C00760B1FFE70F980168042008620B
:102940000F99D1F8900040F00200C1F89000FFE725
:102950009DF838000007002819D5FFE79DF83400DE
:102960008006002807D4FFE70C980121C1F200017E
:1029700008420CD0FFE70F980168082008620F9901
:10298000D1F8900040F00800C1F89000FFE79DF8F2
:1029900039000007002813D5FFE79DF837004007EE
:1029A00000280DD5FFE70F9801684FF4006008621A
:1029B0000F99D1F8900040F02000C1F89000FFE797
:1029C0000F98D0F89000002878D0FFE79DF83800E5
:1029D0008006002815D5FFE79DF834008006002802
:1029E00006D4FFE79DF83300C006002809D5FFE7AD
:1029F0000F98406F20B1FFE70F98416F8847FFE7BE
:102A0000FFE70F98D0F890000A900F980068806850
:102A100000F04000402806D0FFE79DF8280010F0A5
:102A2000280F42D0FFE70F9801F0EAFB0F980068EB
:102A300080684006002833D5FFE7FFE7FFE70F98DF
:102A4000006850E8020F20F040000990FFE7099964
:102A50000F98026842E802100028F0D1FFE7FFE774
:102A60000F98D0F88000B0B1FFE70F98D0F8801031
:102A700044F2DD10C0F6000088630F98D0F88000A3
:102A8000FDF7BCFF30B1FFE70F98D0F88000816BF5
:102A90008847FFE703E00F98FFF7CAFEFFE703E070
:102AA0000F98FFF7C5FEFFE707E00F98FFF7C0FE9E
:102AB0000F990020C1F89000FFE7FFE769E10F9848
:102AC000C06E012840F00681FFE79DF83800C0067F
:102AD000002840F1FF80FFE79DF83400C006002881
:102AE00040F1F880FFE70F980168102008620F9806
:102AF000006880684006002840F18A80FFE70F9850
:102B0000D0F8800000684068ADF82200BDF82200CF
:102B100000287CD0FFE7BDF822000F99B1F85C10C7
:102B2000884274DAFFE7BDF822000F99A1F85E0031
:102B30000F98D0F88000006800688006002859D4FB
:102B4000FFE7FFE7FFE70F98006850E8000F20F469
:102B500080700790FFE707990F98026842E800101D
:102B60000028F0D1FFE7FFE7FFE7FFE70F980068D5
:102B700050E8020F20F001000690FFE706990F9839
:102B8000026842E802100028F0D1FFE7FFE7FFE704
:102B9000FFE70F98006850E8020F20F04000059012
:102BA000FFE705990F98026842E802100028F0D16B
:102BB000FFE7FFE70F992020C1F88C000F99002054
:102BC000C866FFE7FFE70F98006850E8000F20F0A5
:102BD00010000490FFE704990F98026842E8001083
:102BE0000028F0D1FFE7FFE70F98D0F88000FDF74D
:102BF000B7FEFFE70F99022008670F98B0F85C1046
:102C0000B0F85E20891A89B2FFF774FDFFE7C0E0D3
:102C10000F99B1F85C00B1F85E10401AADF80E00E3
:102C20000F98B0F85E00002853D0FFE7BDF80E0003
:102C300000284ED0FFE7FFE7FFE70F98006850E855
:102C4000000F20F490700290FFE702990F9802683D
:102C500042E800100028F0D1FFE7FFE7FFE7FFE7B9
:102C60000F98006850E8020F4FF6FE71CEF6FF7124
:102C700008400190FFE701990F98026842E80210AE
:102C80000028EDD1FFE7FFE70F992020C1F88C0065
:102C90000F990020C8660F994867FFE7FFE70F9874
:102CA000006850E8000F20F010000090FFE7009946
:102CB0000F98026842E800100028F0D1FFE7FFE714
:102CC0000F99022008670F98BDF80E10FFF712FD4C
:102CD000FFE75EE09DF83A00C00600280FD5FFE749
:102CE0009DF832004006002809D5FFE70F980168DB
:102CF0004FF4801008620F98FFF796FD49E09DF8A9
:102D000038000006002815D5FFE79DF834000006BE
:102D1000002806D4FFE79DF832000006002809D5F8
:102D2000FFE70F98806F20B1FFE70F98816F88470A
:102D3000FFE72EE09DF83800400600280AD5FFE79F
:102D40009DF834004006002804D5FFE70F9801F0F5
:102D5000A7FA1EE09DF83A00000600280AD5FFE712
:102D60009DF837004006002804D5FFE70F98FFF7CD
:102D700057FD0EE09DF83B00C00750B1FFE79DF8FE
:102D800037000006002804D5FFE70F98FFF7B8FCCE
:102D9000FFE710B080BD000080B582B000900098C1
:102DA00020B9FFE701208DF8070046E00098806910
:102DB00008B1FFE700E0FFE70098D0F8880040B9CD
:102DC000FFE70099002081F88400009800F03AF8AD
:102DD000FFE700992420C1F888000098016808687E
:102DE00020F0010008600098806A20B1FFE7009899
:102DF00001F0ACF8FFE7009801F074FA012804D163
:102E0000FFE701208DF8070017E000980168486887
:102E100020F49040486000980168886820F02A00FB
:102E2000886000980168086840F001000860009818
:102E300001F030F98DF80700FFE79DF8070002B0B8
:102E400080BD000080B5A2B02190002020901F908E
:102E50001E901D901C9007A85421FDF723FA21987D
:102E6000006843F60001C4F20101884240F09380FB
:102E7000FFE7012007900020089007A8FEF746FB17
:102E800018B1FFE7FDF764FDFFE7FFE741F26000DF
:102E9000C4F20200016841F480410160006800F45E
:102EA000804006900698FFE7FFE741F24C00C4F22D
:102EB0000200016841F004010160006800F00400B4
:102EC00005900598FFE730201C9002201D900020FF
:102ED00003901E901F900720209040F60000C4F63B
:102EE00000001CA9FDF788FF039940F22800C2F2F8
:102EF000000004900822C4F202020260182242601C
:102F00008160C16080220261416181612022C261D1
:102F10000162FDF781FE18B1FFE7FDF719FDFFE73C
:102F2000FFE7219840F22801C2F20001C0F88010AA
:102F300021988862FFE740F28800C2F20000029008
:102F40001C21C4F20201016019214160102181603D
:102F50000021C1608022026141618161C161016221
:102F6000FDF75AFE18B1FFE7FDF7F2FCFFE7FFE7B8
:102F7000219840F28801C2F20001C167219888625D
:102F8000FFE72520019000221146FEF7BBF90198CA
:102F9000FEF7AEF9FFE722B080BD000080B58AB031
:102FA00008900791ADF81A2005930898D0F88C0086
:102FB000202840F0C680FFE7079820B1FFE7BDF862
:102FC0001A0020B9FFE701208DF82700BDE008991D
:102FD0000020C1F89000089A2221C2F88C100899AC
:102FE000C866FEF7EBF80190BDF81A000899A1F841
:102FF0005C00BDF81A000899A1F85E00FFE7089888
:103000008068B0F5805F10D1FFE70898006930B99B
:10301000FFE7089940F2FF10A1F8600004E008996A
:10302000FF20A1F86000FFE72EE00898806878B9DB
:10303000FFE70898006928B9FFE70899FF20A1F881
:10304000600004E008997F20A1F86000FFE71AE023
:1030500008988068B0F1805F0FD1FFE70898006999
:1030600028B9FFE708997F20A1F8600004E00899DB
:103070003F20A1F86000FFE704E008990020A1F8D4
:103080006000FFE7FFE7FFE7FFE70898B0F86000A0
:10309000ADF80A0008988068B0F5805F09D1FFE7B5
:1030A0000898006928B9FFE700200490079803906A
:1030B00004E00798049000200390FFE7FFE70898DA
:1030C000B0F85E00A8B3FFE70898019B05996A462F
:1030D00011602021002201F0F7FB40B1FFE70899C1
:1030E0002020C1F88C0003208DF827002DE00498E3
:1030F00060B9FFE708980068406ABDF80A10084008
:10310000039908800398023003900BE00898006848
:10311000406A9DF80A10084004990870049801302C
:103120000490FFE70899B1F85E000138A1F85E004D
:10313000C5E708992020C1F88C0000208DF82700F1
:1031400003E002208DF82700FFE79DF827000AB072
:1031500080BD000080B58AB008900791ADF81A20B4
:1031600005930898D0F88800202840F08780FFE772
:10317000079820B1FFE7BDF81A0020B9FFE701204A
:103180008DF827007EE008990020C1F8900008998A
:103190002120C1F88800FEF711F80290BDF81A004E
:1031A0000899A1F85400BDF81A000899A1F8560032
:1031B00008988068B0F5805F09D1FFE7089800693A
:1031C00028B9FFE7002004900798039004E00798CF
:1031D000049000200390FFE7FFE70898B0F856003E
:1031E00088B3FFE70898029B05996A461160802121
:1031F000002201F069FB40B1FFE708992020C1F8E7
:10320000880003208DF827003CE0049858B9FFE7B8
:10321000039800886FF35F20089909688862039813
:103220000230039008E004980078089909688862E1
:10323000049801300490FFE70899B1F8560001386E
:10324000A1F85600C9E70898029B05996A461160E3
:103250004021002201F038FB40B1FFE7089920200F
:10326000C1F8880003208DF827000BE00899202082
:10327000C1F8880000208DF8270003E002208DF8B7
:103280002700FFE79DF827000AB080BD81B00090BD
:1032900001B07047FFE7FEE780B586B0DDF820C0DB
:1032A0000590049103920293059803990144013912
:1032B000049A029B1344013BFDF788FA0398029994
:1032C00048434000009041F22801C4F6000110205C
:1032D0000860722000F07AF900200190FFE7019861
:1032E000009988420AD2FFE708980199405C00F0F3
:1032F0006DF9FFE7019801300190F0E741F2180104
:10330000C4F600011020086006B080BD80B58CB006
:1033100000F064FA012007900021089100F048F9BC
:1033200002204FF4E06100F043F9032041F2300144
:1033300000F03EF90899042000F03AF9082040F224
:10334000022100F035F90899092000F031F90899B7
:103350000A200B9000F02CF908990C2000F028F9B5
:1033600008990D20049000F023F908990F20069089
:1033700000F01EF908991020099000F019F91120A9
:10338000019007210A9100F013F908991220029088
:1033900000F00EF908991320039000F009F907993D
:1033A0000A9800F005F9C820FDF7E2FC099841F2FF
:1033B000906100F0FDF8019840F2272100F0F8F844
:1033C00032200590FDF7D4FC02989D2100F0F0F822
:1033D0000598FDF7CDFC03984FF4D05100F0E8F8C4
:1033E00029201D2100F0E4F804992B2000F0E0F8DA
:1033F0000598FDF7BDFC0899202000F0D9F8089940
:10340000212000F0D5F80899302000F0D1F83120C3
:1034100040F2076100F0CCF8059840F2053100F069
:10342000C7F80899352000F0C3F8362041F204614E
:1034300000F0BEF837204FF4017100F0B9F8079999
:10344000382000F0B5F8392040F2077100F0B0F8EC
:1034500008993C2000F0ACF806993D2000F0A8F84F
:103460000899502000F0A4F85120EF2100F0A0F8B6
:103470000899522000F09CF8532040F23F1100F0D0
:1034800097F860204FF41C5100F092F807996120E2
:1034900000F08EF808996A2000F08AF808998020D8
:1034A00000F086F80899812000F082F808998220BF
:1034B00000F07EF80899832000F07AF808998420BB
:1034C00000F076F80899852000F072F809999020AC
:1034D00000F06EF892204FF4C06100F069F80A988D
:1034E00040F2331100F064F80B98FDF741FC0CB08A
:1034F00080BD000010B586B084460998DDF820E054
:10350000ADF816C0ADF81410049203938DF80B00BB
:1035100000208DF80A00FFE704980078002845D0C5
:10352000FFE7049800787F2820DCFFE7BDF816004D
:103530009DF80A1000EBC100BDF81410049A12782F
:10354000039BDDF820C09DF80B40EE46CEF804400A
:10355000CEF800C080B200F0DBFB0498013004908C
:103560009DF80A0001308DF80A001EE0BDF8160033
:103570009DF80A1000EBC100BDF81410049A039BDB
:10358000DDF820C09DF80B40EE46CEF80440CEF8A2
:1035900000C080B200F0D6FA0498023004909DF882
:1035A0000A0002308DF80A00FFE7B5E706B010BD4B
:1035B00080B582B0019000919DF8040000F062F89F
:1035C000BDF8000000F040F802B080BD81B08DF879
:1035D000030000208DF80100FFE79DF80100072897
:1035E00030DCFFE79DF803009DF80110C1F10701F1
:1035F000C84000F001008DF8020041F22801C4F635
:103600000001042008609DF8020038B1FFE741F294
:103610001801C4F600014020086006E041F22801CC
:10362000C4F6000140200860FFE741F21801C4F62B
:10363000000104200860FFE79DF8010001308DF8CB
:103640000100CAE701B0704780B582B0ADF806004E
:1036500041F22801C4F60001102000900860722099
:10366000FFF7B4FF9DF80700FFF7B0FF9DF80600D5
:10367000FFF7ACFF009841F21801C4F600010860A2
:1036800002B080BD80B582B08DF8070041F22801FC
:10369000C4F600011020009008607020FFF796FF2C
:1036A0000020FFF793FF9DF80700FFF78FFF0098BA
:1036B00041F21801C4F60001086002B080BD0000AC
:1036C00080B582B040F60040C4F6000000904FF490
:1036D000806101220192FDF75BFD0098019A4FF491
:1036E0000061FDF755FD02B080BD000080B582B0DD
:1036F00040F60040C4F6000000904FF480610022C4
:103700000192FDF745FD0098019A4FF40061FDF725
:103710003FFD02B080BD000080B582B040F60040A1
:10372000C4F6000001904FF480610122FDF730FDE6
:1037300001984FF400610022FDF72AFD02B080BD20
:1037400080B582B040F60040C4F6000001904FF40E
:1037500080610022FDF71CFD01984FF400610122F9
:10376000FDF716FD02B080BD80B586B0DDF820C043
:10377000059004910392029305980399014401393D
:10378000049A029B1344013BFDF720F841F2280103
:10379000C4F60001102008607220FFF717FF002018
:1037A0000190FFE701980399029A514388420DD294
:1037B000FFE79DF82100FFF709FF9DF82000FFF7C4
:1037C00005FFFFE7019801300190EBE741F2180196
:1037D000C4F600011020086006B080BD80B582B03C
:1037E00041F22801C4F60001022001900860642023
:1037F000FDF7BEFA019841F21801C4F60001086015
:103800003220FDF7B5FA02B080BD000080B582B06D
:10381000ADF80600ADF804102020FFF733FFBDF827
:103820000600FFF711FF2120FFF72CFFBDF8040071
:10383000FFF70AFF02B080BD80B586B0FFE741F216
:103840004800C4F20200016841F004010160006810
:1038500000F0040005900598FFE7FFE741F24800FB
:10386000C4F20200016841F001010160006800F04B
:10387000010004900498FFE70B20019000220292BF
:103880001146FDF73FFD0198FDF732FD029A0C202D
:1038900003901146FDF736FD0398FDF729FD06B0AC
:1038A00080BD000080B594B000201390129011905C
:1038B00010900F90FFE741F24C00C4F20200016843
:1038C00041F010010160006800F010000E900E98A9
:1038D000FFE7FFE741F24C00C4F20200016841F04B
:1038E00020010160006800F020000D900D98FFE7B6
:1038F000FFE741F24C00C4F20200016841F001010F
:103900000160006800F001000C900C98FFE7FFE7F1
:1039100041F24C00C4F20200016841F00401016070
:10392000006800F004000B900B98FFE7FFE741F2FE
:103930004C00C4F20200016841F008010160006817
:1039400000F008000A900A98FFE741F20000C4F670
:10395000000002904E2100220892FDF719FC029807
:103960001021019101220492FDF712FC089A40F601
:103970000040C4F6000005904FF440610391FDF74C
:1039800007FC0298049A089944230F93109211910E
:10399000032112910FA90691FDF72EFA0298049BBC
:1039A0000699089A4FF00A0CCDF81CC0CDF83CC01F
:1039B000109311921292FDF71FFA019B0298049A3C
:1039C00006990F931092119202221292FDF714FAA7
:1039D00002980699089A20230F9310921192FDF7EE
:1039E0000BFA0498069970220F924FF40412109269
:1039F00011904FF09040FDF7FFF9DDF80CC0049BEB
:103A000005980699089ACDF83CC01093119212922D
:103A1000FDF7F2F90798089A1146FDF773FC07982D
:103A2000FDF766FC089A172009901146FDF76AFC1D
:103A30000998FDF75DFC14B080BD000080B582B030
:103A400040F2E800C2F20000009043F60001C4F228
:103A5000010101604FF4E131416000210191816079
:103A6000C16001610C2242618161C16101624162F8
:103A70008162FFF791F918B1FFE7FCF769FFFFE7F3
:103A800040F2E800C2F200000021FEF783FE18B108
:103A9000FFE7FCF75DFFFFE740F2E800C2F200003D
:103AA0000021FEF731FE18B1FFE7FCF751FFFFE7F9
:103AB00040F2E800C2F20000FEF7DEFD18B1FFE7B9
:103AC000FCF746FFFFE702B080BD0000FFE7FEE71E
:103AD000FFE7FEE788B0079006910592079800F08F
:103AE000070004900498C0F10700052803D3FFE7FE
:103AF0000420019004E00498C0F107000190FFE762
:103B00000198039004980430062803D8FFE70020AA
:103B1000009003E0049803380090FFE700980290BB
:103B200006980399012202FA01F101390840029B2B
:103B3000984005999A40013A1140084308B07047EF
:103B40007047000080B588B084460B98DDF828E007
:103B5000ADF81EC0ADF81C10069205938DF8130049
:103B600000200190FFE70198C72800F28180FFE75D
:103B700001982321414346F61440C0F60000405C02
:103B80000699097888426ED1FFE7019846F61442FB
:103B9000C0F60002232100FB0120407806994978F5
:103BA000884260D1FFE700200390FFE703981F28B9
:103BB00058D8FFE7019846F61442C0F600022321C8
:103BC00000FB012003990844C078ADF802000020F2
:103BD0000290FFE70298072829D8FFE7BDF8020006
:103BE000000600280AD5FFE7BDF81E000299084428
:103BF000BDF81C10059AFCF777FE0EE09DF8130047
:103C000050B1FFE7BDF81E0002990844BDF81C1032
:103C10000A9AFCF769FEFFE7FFE7BDF802004000E3
:103C2000ADF80200FFE7029801300290D2E79DF85C
:103C30000C00C00758B1FFE7BDF81C000130ADF81B
:103C40001C00BDF81E000838ADF81E0005E0BDF8E8
:103C50001E000830ADF81E00FFE7FFE703980130B3
:103C60000390A3E7FFE7FFE70198013001907AE7AF
:103C700008B080BD86B041F20C00C4F202000168B9
:103C800001F0030104910068C1B2012000EB1110A2
:103C9000029004980090022815D0FFE700980328AE
:103CA00012D1FFE7029941F20020C0F27A00B0FB86
:103CB000F1F041F20C01C4F202010968C1F30621DE
:103CC0004843059011E0FFE7029942F20040C0F23C
:103CD000F400B0FBF1F041F20C01C4F202010968FA
:103CE000C1F3062148430590FFE741F20C00C4F2FE
:103CF0000200006800F0C061022000EB1160039038
:103D000005980399B0FBF1F00190019806B0704757
:103D100080B588B084460B98DDF828E0ADF81EC069
:103D2000ADF81C108DF81B2005938DF813009DF83D
:103D30001B0020388DF81B009DF81B00000102902D
:103D400000200390FFE703980F2844D8FFE702986C
:103D50000399014447F20010C0F60000405C8DF862
:103D6000120000200190FFE70198072829D8FFE7FB
:103D70009DF81200000600280AD5FFE7BDF81E00D6
:103D800001990844BDF81C10059AFCF7ADFD0EE042
:103D90009DF8130050B1FFE7BDF81E0001990844DB
:103DA000BDF81C100A9AFCF79FFDFFE7FFE79DF89E
:103DB000120040008DF81200FFE7019801300190D9
:103DC000D2E7BDF81C000130ADF81C00FFE70398F6
:103DD00001300390B7E708B080BD000070470000D5
:103DE00080B582B0009000980138B0F1807F03D395
:103DF000FFE70120019019E0009801384EF214010C
:103E0000CEF2000108604FF0FF300F2100F00CFEF1
:103E10004EF21801CEF20001002008604EF21002AE
:103E2000CEF20002072111600190FFE7019802B075
:103E300080BD000080B5FDF7C7F980BD80B594B0A6
:103E400006A800903821FCF72DFA00200590049078
:103E5000039002900190FDF775FA009801210691F8
:103E60004FF48031079102210D9103220E920F91A0
:103E700055221092119112911391FEF719F818B171
:103E8000FFE7FCF765FDFFE70F200190032002909C
:103E9000002003900490059001A80421FDF7C8FDBF
:103EA00018B1FFE7FCF754FDFFE714B080BD000038
:103EB0004EF68851CEF20001086840F470000860A8
:103EC0007047000082B001900198406E40B9FFE752
:103ED00001990120A1F86A000199A1F8680032E077
:103EE00008208DF803008DF80200019800688068B2
:103EF000C0F342608DF80100019800688068400FAF
:103F00008DF800009DF802009DF8002046F6F4337D
:103F1000C0F60003995C484346F6EC31C0F6000158
:103F20008A5CB0FBF2F0019AA2F86A009DF80300E7
:103F30009DF801209B5C5843895CB0FBF1F001992E
:103F4000A1F86800FFE702B07047000081B0009060
:103F5000009890F82800000700280BD5FFE700988C
:103F60000068406820F40040009A1168926B10438A
:103F70004860FFE7009890F82800C00758B1FFE7B5
:103F800000980068406820F40030009A1168D26AF6
:103F900010434860FFE7009890F828008007002849
:103FA0000BD5FFE700980068406820F48030009A45
:103FB0001168126B10434860FFE7009890F82800E2
:103FC000400700280BD5FFE700980068406820F400
:103FD0008020009A1168526B10434860FFE70098F8
:103FE00090F82800C00600280BD5FFE7009800686D
:103FF000806820F48050009A1168D26B104388606A
:10400000FFE7009890F82800800600280BD5FFE70E
:1040100000980068806820F40050009A1168126CC3
:1040200010438860FFE7009890F8280040060028B9
:104030001CD5FFE700980068406820F48010009AC3
:104040001168526C104348600098406CB0F5801FB6
:104050000BD1FFE700980068406820F4C000009A88
:104060001168926C10434860FFE7FFE7009890F8F2
:104070002800000600280BD5FFE70098006840687C
:1040800020F40020009A1168D26C10434860FFE7CA
:1040900001B0704780B588B0069006990020C1F83D
:1040A0009000FDF78BF805900698006800680007FF
:1040B00000282FD5FFE70698059B6A466FF07E41E2
:1040C00011604FF40011002200F0FEFB08B3FFE77F
:1040D000FFE7FFE70698006850E8000F20F0800037
:1040E0000490FFE704990698026842E8001000284F
:1040F000F0D1FFE7FFE706992020C1F88800FFE72D
:104100000699002081F88400FFE703208DF81F0046
:104110005FE0FFE70698006800684007002842D586
:10412000FFE70698059B6A466FF07E4111604FF4E9
:104130008001002200F0C8FBA0B3FFE7FFE7FFE724
:104140000698006850E8000F20F490700390FFE795
:1041500003990698026842E800100028F0D1FFE7B2
:10416000FFE7FFE7FFE70698006850E8020F20F03E
:1041700001000290FFE702990698026842E80210E7
:104180000028F0D1FFE7FFE706992020C1F88C0056
:10419000FFE70699002081F88400FFE703208DF8EF
:1041A0001F0016E0FFE706992020C1F88800069955
:1041B000C1F88C0006990020C86606990867FFE7D9
:1041C0000699002081F88400FFE700208DF81F0089
:1041D000FFE79DF81F0008B080BD000080B582B0E9
:1041E00001900198806A009000990020A1F85E007B
:1041F0000099A1F856000098FEF71AFB02B080BDA6
:1042000084B00390FFE7FFE70398006850E8000FD1
:1042100020F490700290FFE702990398026842E848
:1042200000100028F0D1FFE7FFE7FFE7FFE7039862
:10423000006850E8020F4FF6FE71CEF6FF7108409D
:104240000190FFE701990398026842E802100028F4
:10425000EDD1FFE7FFE70398C06E012814D1FFE717
:10426000FFE7FFE70398006850E8000F20F0100018
:104270000090FFE700990398026842E800100028C8
:10428000F0D1FFE7FFE7FFE703992020C1F88C009A
:1042900003990020C8660399486704B0704700007E
:1042A00080B582B00190FFE7FFE70198006850E811
:1042B000000F20F040000090FFE70099019802688D
:1042C00042E800100028F0D1FFE7FFE70199202025
:1042D000C1F888000199002088670198FEF7D6FF91
:1042E00002B080BD80B592B0119000208DF83700EB
:1042F0001198006848F20001C4F20001884201D11F
:10430000FFE700E0FFE7119988680B694A69C9690E
:10431000184310430843109011980068006846F64F
:10432000F311CCF6FF710840109908431199096800
:10433000086011980068406820F44050119A116894
:10434000D2681043486011988069109011980068F5
:1043500048F20001C4F20001884206D0FFE711983C
:10436000016A109808431090FFE711980068806870
:104370004FF2FF41C1F2FF11084010990843119913
:104380000968886011980068C06A20F00F00119ACF
:104390001168526A1043C862FFE71198006843F63B
:1043A0000001C4F20101884225D1FFE741F28800F3
:1043B000C4F20200006800F0030001460A910328DD
:1043C00014D80A99DFE801F0020A060E01208DF8E0
:1043D0003D000FE002208DF83D000BE004208DF839
:1043E0003D0007E008208DF83D0003E010208DF827
:1043F0003D00FFE715E11198006844F20041C4F266
:10440000000188422AD1FFE741F28800C4F202008D
:10441000006800F00C00014609910C2819D8099990
:10442000DFE801F0071717170F1717170B171717E4
:10443000130000208DF83D000FE002208DF83D00B4
:104440000BE004208DF83D0007E008208DF83D00CA
:1044500003E010208DF83D00FFE7E1E011980068CF
:1044600044F60001C4F2000188422CD1FFE741F27A
:104470008800C4F20200006800F030000146089194
:1044800060B1FFE70898102810D0FFE708982028AF
:1044900008D0FFE7089830280CD00FE000208DF8F6
:1044A0003D000FE002208DF83D000BE004208DF868
:1044B0003D0007E008208DF83D0003E010208DF856
:1044C0003D00FFE7ABE01198006844F60041C4F2FC
:1044D000000188422CD1FFE741F28800C4F20200BB
:1044E000006800F0C0000146079160B1FFE707983F
:1044F000402810D0FFE70798802808D0FFE70798EA
:10450000C0280CD00FE000208DF83D000FE0022005
:104510008DF83D000BE004208DF83D0007E00820F9
:104520008DF83D0003E010208DF83D00FFE775E0B9
:104530001198006845F20001C4F2000188422FD1B1
:10454000FFE741F28800C4F20200006800F4407006
:104550000146069178B1FFE70698B0F5807F12D04A
:10456000FFE70698B0F5007F09D0FFE70698B0F5A1
:10457000407F0CD00FE000208DF83D000FE00220BE
:104580008DF83D000BE004208DF83D0007E0082089
:104590008DF83D0003E010208DF83D00FFE73CE082
:1045A0001198006848F20001C4F2000188422FD13E
:1045B000FFE741F28800C4F20200006800F44060A6
:1045C0000146059178B1FFE70598B0F5806F12D0EC
:1045D000FFE70598B0F5006F09D0FFE70598B0F543
:1045E000406F0CD00FE000208DF83D000FE002205E
:1045F0008DF83D000BE004208DF83D0007E0082019
:104600008DF83D0003E010208DF83D00FFE703E04A
:1046100010208DF83D00FFE7FFE7FFE7FFE7FFE72A
:10462000FFE7FFE71198006848F20001C4F20001BB
:10463000884240F07E80FFE79DF83D0001460491EE
:10464000082819D80499DFE801F0051709170F1792
:1046500017171300FDF786FB0B9013E042F20040A2
:10466000C0F2F4000B900DE0FDF7A4FB0B9009E005
:104670004FF400400B9005E000200B9001208DF8D6
:104680003700FFE70B98002852D0FFE70B981199ED
:104690004A6A46F6FC31C0F6000131F81210B0FB50
:1046A000F1F00C900C981199496801EB4101884296
:1046B00007D3FFE70C9811994968B0EB013F04D983
:1046C000FFE701208DF8370031E00B9811994A6817
:1046D00002924A6A46F6FC31C0F6000131F8122017
:1046E000002303931946FBF793FD029A039B0902EB
:1046F00041EA1061000210EB520041F10001FBF7AA
:1047000087FD0E900E98B0F5407F0BD3FFE70E9912
:104710000020B0EB115F05D1FFE70E9811990968F1
:10472000C86003E001208DF83700FFE7FFE7FFE7EF
:10473000B9E01198C069B0F5004F61D1FFE79DF86D
:104740003D000146019108281DD80199DFE801F0DC
:1047500005090D1B131B1B1B1700FDF703FB0B901B
:1047600017E0FDF713FB0B9013E042F20040C0F29C
:10477000F4000B900DE0FDF71DFB0B9009E04FF4EA
:1047800000400B9005E000200B9001208DF83700D1
:10479000FFE70B9898B3FFE70B98119A5168536A9B
:1047A00046F6FC32C0F6000232F81320B0FBF2F0FD
:1047B000400000EB5100B0FBF1F00E900E98102875
:1047C00018D3FFE7BDF83A00A0B9FFE70E9820F034
:1047D0000F00ADF83E000E9800F00E01BDF83E004F
:1047E00040EA5100ADF83E00BDF83E00119909685D
:1047F000C86003E001208DF83700FFE7FFE751E0D4
:104800009DF83D000146009108281DD80099DFE879
:1048100001F005090D1B131B1B1B1700FDF7A2FA66
:104820000B9017E0FDF7B2FA0B9013E042F2004054
:10483000C0F2F4000B900DE0FDF7BCFA0B9009E01C
:104840004FF400400B9005E000200B9001208DF804
:104850003700FFE70B9820B3FFE70B98119A5168D8
:10486000536A46F6FC32C0F6000232F81320B0FB61
:10487000F2F000EB5100B0FBF1F00E900E98102812
:104880000AD3FFE7BDF83A0030B9FFE7BDF83800BA
:1048900011990968C86003E001208DF83700FFE72F
:1048A000FFE7FFE7FFE711990120A1F86A001199DE
:1048B000A1F86800119900204867119988679DF850
:1048C000370012B080BD000080B586B0DDF820C092
:1048D000049003918DF80B200193FFE70498006882
:1048E000C06903990840401AB0FA80F040099DF869
:1048F0000B10884266D1FFE708980130002860D08D
:10490000FFE7FCF75BFC0199401A0899884203D83D
:10491000FFE7089820B9FFE703208DF8170055E05E
:104920000498006800684007002849D5FFE703980D
:10493000802845D0FFE70398402841D0FFE704983E
:104940000068C06900F008010120B0EBD10F16D15A
:10495000FFE7049801680820009008620498FFF7B8
:104960004FFC00980499C1F89000FFE704990020DB
:1049700081F88400FFE701208DF8170026E00498F5
:104980000068C06900F400610120B0EBD12F16D19E
:10499000FFE7049801684FF4006008620498FFF78D
:1049A0002FFC04992020C1F89000FFE70499002013
:1049B00081F88400FFE703208DF8170006E0FFE789
:1049C000FFE78BE700208DF81700FFE79DF8170041
:1049D00006B080BD80B540F2E800C2F20000FDF7ED
:1049E0002BFF80BDFFE7FEE781B08DF803009DF946
:1049F000030000280ED4FFE79DF9031001F01F0209
:104A0000012090404A094EF20011CEF2000141F817
:104A10002200FFE701B070474EF60C50CEF20000C6
:104A20000068C0F30220704782B08DF80700009143
:104A30009DF9070000280AD4FFE7009800019DF9BE
:104A400007104EF20042CEF2000288540BE00098AC
:104A500000019DF8071001F00F014EF61452CEF23E
:104A600000028854FFE702B07047000083B0029054
:104A7000029800F0070000904EF60C51CEF20001B3
:104A80000868019001984FF6FF02104001900198CC
:104A9000009A40EA02200022C0F2FA52104301902C
:104AA0000198086003B0704780B5ADF5047D002023
:104AB00045908390FCF796FBFFF7C0F9FEF7F2FEF6
:104AC000FEF7BAFEFEF7BAFF40F2E800C2F20000BD
:104AD00040F20401C2F20001FF220123FEF75EFA58
:104AE000FEF714FC45996A461F201060F02242929E
:104AF0004FF4A07343930846FEF736FE429A439B59
:104B00004599EC464FF478404790CCF800000846B1
:104B1000FEF72AFE459A4FF4C87310461946FBF774
:104B200055FE429A439B45997F917E917D918DF8E8
:104B3000F211EC464FF6FF704690CCF800000846A4
:104B4000FEF712FEC820FCF713F9459A4698479BDA
:104B500069464A60086044F6F552C0F605021E2018
:104B600044903C21FEF7C6FC4498DDF814C14699F8
:104B7000479B6A46C2F804C0116044F6F442C0F68E
:104B800005025A21FEF7B6FC4498DDF814C1469997
:104B9000479B6A46C2F804C0116044F60A52C0F648
:104BA00005028221FEF7A6FC4498DDF814C146995F
:104BB000479B6A46C2F804C0116044F6DA42C0F668
:104BC0000502AA21FEF796FC459A4698479B69463E
:104BD0004A60086044F6CC42C0F605024620DC215B
:104BE000FEF788FCFFE700207B904FF090401021FB
:104BF000FCF7B6FA002840F0DA80FFE769464FF686
:104C0000FF7008600021F0224FF4A0730846FEF701
:104C1000ABFD40F27C10C2F200000178013101F0DE
:104C200003010170007801464191032800F2BD8024
:104C30004199DFE801F002154C83FEF741FD69461A
:104C4000002048604FF6FF70086044F6CC42C0F682
:104C5000050232203C214FF47843FEF74BFCA4E0E0
:104C6000FEF76EFD6946002048604FF6FF70086051
:104C700044F6D342C0F60502322050214FF4784367
:104C8000FEF738FC40F2E800C2F20000409044F623
:104C90008041C0F605010C224FF0FF333F93FEF731
:104CA00059FA40F27D10C2F200003E9044F67B516A
:104CB000C0F6050101F00CFB3E98FBF7FEFA3E99A9
:104CC0003F9B0246409892B2FEF744FA6DE0FEF731
:104CD00023FD6946002048604FF6FF70086044F6E7
:104CE0001F52C0F60502322064214FF47843FEF7CC
:104CF00001FC40F2E800C2F200003D9044F68D4114
:104D0000C0F605010C224FF0FF333C93FEF722FA68
:104D100040F27D10C2F200003B9044F68F51C0F685
:104D2000050101F0D5FA3B98FBF7C7FA3B993C9B8C
:104D300002463D9892B2FEF70DFA36E0FEF7D6FC39
:104D40006946002048604FF6FF70086044F6325212
:104D5000C0F60502322078214FF47843FEF7CAFBF3
:104D600040F2E800C2F200003A9044F69A41C0F6E0
:104D700005010C224FF0FF333993FEF7EBF940F2B7
:104D80007D10C2F20000389044F6A351C0F6050130
:104D900001F09EFA3898FBF790FA3899399B024651
:104DA0003A9892B2FEF7D6F9FFE701F08EBA4FF0CB
:104DB00090402021FCF7D4F9002840F07082FFE7F2
:104DC00047F27330C0F2210031907A9045F2200012
:104DD000C6F272503390799044F24B50C3F259109E
:104DE000789044F64F51C0F605010DF5E570162296
:104DF0003292FBF73EFA3199329A33987191709062
:104E000044F24B50C3F259206F9044F66551C0F6FE
:104E100005010DF5D370FBF72CFA3199329A3398CE
:104E20006891679044F24B50C3F25930669044F653
:104E30003951C0F605010DF5C170FBF71AFA44F6B9
:104E4000A741C0F605010DF26F101322FBF711FA0E
:104E500043F23110C3F23160CDF86B0143F23101FE
:104E6000C3F237115A9143F23200C3F23220599003
:104E700043F23112C3F23172CDF85F21579156904F
:104E800043F23122C3F23222CDF853215491539090
:104E900041208DF8480143F24150C4F23510519041
:104EA00069464FF6FF703590086000213491F0227A
:104EB0004FF4A0730846FEF757FC349A35986946BC
:104EC0004A60086044F6F552C0F60502322036907A
:104ED00078214FF478433793FEF70CFBDDF8D0C010
:104EE00035993698379B6A46C2F804C0116044F67B
:104EF000BA42C0F605028C21FEF7FCFAFFE740F249
:104F0000E800C2F2000040F20401C2F200010522F2
:104F10000123FEF743F8002840F0BE81FFE740F28E
:104F2000E800C2F200002E9040F21801C2F2000127
:104F30002F910B22309201232D93FEF72FF82D9BFA
:104F40002E9840F22301C2F200010522FEF726F856
:104F500069464FF6FF7008600021F0224FF4A073FD
:104F60000846FEF701FC2F98309A59A9FBF7ACF9D7
:104F7000D8BBFFE740F2E800C2F2000040F218019F
:104F8000C2F200010B220123FEF7E4F869464FF656
:104F9000FF702A90086000212991F0224FF4A0733D
:104FA0000846FEF7E1FB299A2A9869464A6008609C
:104FB00044F6EB52C0F6050232202B903C214FF410
:104FC00078432C93FEF796FADDF8A4C02A992B9823
:104FD0002C9B6A46C2F804C0116044F6B752C0F672
:104FE00005026421FEF786FA49E140F21800C2F298
:104FF000000056A90B22FBF767F9D8BBFFE740F288
:10500000E800C2F2000040F21801C2F200010B22D7
:105010000123FEF79FF869464FF6FF70269008605F
:1050200000212591F0224FF4A0730846FEF79CFB67
:10503000259A269869464A60086044F61962C0F6C7
:105040000502322027903C214FF478432893FEF745
:1050500051FADDF894C026992798289B6A46C2F831
:1050600004C0116044F6C352C0F605026421FEF785
:1050700041FA03E140F21800C2F2000053A90B22EA
:10508000FBF722F9D8BBFFE740F2E800C2F20000CC
:1050900040F21801C2F200010B220123FEF75AF878
:1050A00069464FF6FF702290086000212191F0229E
:1050B0004FF4A0730846FEF757FB219A22986946E1
:1050C0004A60086044F6CF52C0F6050232202390B1
:1050D0002D214FF478432493FEF70CFADDF884C0B9
:1050E00022992398249B6A46C2F804C0116044F6B2
:1050F0002652C0F605023C21FEF7FCF9BDE040F265
:105100000400C2F2000051A90522FBF7DDF80028D7
:1051100053D1FFE7694600201E9048604FF6FF70AC
:105120001F90086044F6F552C0F605021E201D903F
:105130003C214FF478432093FEF7DCF91D98DDF80D
:1051400078C01F99209B6A46C2F804C0116044F6DB
:10515000F442C0F605025A21FEF7CCF91D98DDF89D
:1051600078C01F99209B6A46C2F804C0116044F6BB
:105170000A52C0F605028221FEF7BCF91D98DDF83F
:1051800078C01F99209B6A46C2F804C0116044F69B
:10519000DA42C0F60502AA21FEF7ACF91E9A1F9862
:1051A000209B69464A60086044F6CC42C0F605027E
:1051B0004620DC21FEF79EF96FE040F2E800C2F2E3
:1051C0000000169040F20401C2F20001052215927F
:1051D00001231793FDF7BEFF179B169840F21801A5
:1051E000C2F200010B22FDF7B5FF159A179B169826
:1051F00040F22301C2F20001FDF7ACFF4FF4FA7058
:105200001890FBF7B5FD1698179B0DF26F1112223F
:10521000FDF7A0FF1898FBF7ABFD69464FF6FF704E
:105220001A90086000211991F0224FF4A0730846EB
:10523000FEF79AFA199A1A9869464A60086044F685
:10524000F552C0F6050232201B9078214FF47843C6
:105250001C93FEF74FF9DDF864C01A991B981C9B4C
:105260006A46C2F804C0116044F6BA42C0F60502AC
:105270008C21FEF73FF9FFE7FFE7FFE7FFE740F28A
:10528000E800C2F2000040F20401C2F20001FF2275
:105290000123FDF783FEFFE731E601F015B84FF07B
:1052A00090404021FBF75CFF002841F00C80FFE7B5
:1052B000FFE740F27C10C2F200000078012840F0C5
:1052C000A682FFE769464FF6FF7008600021F022D2
:1052D0004FF4A0730846FEF747FA4AF68010C0F66E
:1052E0000200694608601421782308461A46FDF733
:1052F000D3FFFFE709208DF8430140F2E800C2F236
:1053000000000DF2431101224FF0FF33FDF746FE7E
:105310009DF8430102281ED1FFE77B98D8B9FFE72B
:105320007B9801307B9069464FF6FF700860002142
:10533000F0224FF4A0730846FEF716FA45F6000077
:10534000C0F60100694608601421782308461A4611
:10535000FDF7A2FF00E0CDE7FFE709208DF842014D
:1053600040F2E800C2F200000DF5A17101224FF0F9
:10537000FF33FDF713FE9DF84201F8B9FFE77B9874
:1053800001281BD1FFE77B9801307B9069464FF6DF
:10539000FF7008600021F0224FF4A0730846FEF76A
:1053A000E3F947F20070C0F6000069460860142176
:1053B000782308461A46FDF76FFF00E0CDE7FFE7C8
:1053C00009208DF8410140F2E800C2F200000DF220
:1053D000411101224FF0FF33FDF7E0FD9DF841013F
:1053E00002281FD1FFE77B9802281BD1FFE77B989B
:1053F00001307B9069464FF6FF7008600021F02273
:105400004FF4A0730846FEF7AFF945F60000C0F66A
:105410000100694608601421782308461A46FDF702
:105420003BFF00E0CCE7FFE709208DF8400140F2A8
:10543000E800C2F2000050A901224FF0FF33FDF74F
:10544000ADFD9DF8400102281FD1FFE77B9803289E
:105450001BD1FFE77B9801307B9069464FF6FF70C8
:1054600008600021F0224FF4A0730846FEF77CF993
:1054700045F60000C0F60100694608601421782353
:1054800008461A46FDF708FF00E0CDE7FFE70920D0
:105490008DF83F0140F2E800C2F200000DF23F112A
:1054A00001224FF0FF33FDF779FD9DF83F01012800
:1054B0001FD1FFE77B9804281BD1FFE77B980130C1
:1054C0007B9069464FF6FF7008600021F0224FF490
:1054D000A0730846FEF748F94EF28070C0F600004F
:1054E000694608601421782308461A46FDF7D4FE61
:1054F00000E0CCE7FFE709208DF83E0140F2E8002C
:10550000C2F200000DF59F7101224FF0FF33FDF74D
:1055100045FD9DF83E01F8B9FFE77B9805281BD1B2
:10552000FFE77B9801307B9069464FF6FF7008607B
:105530000021F0224FF4A0730846FEF715F947F258
:105540000070C0F600006946086014217823084600
:105550001A46FDF7A1FE00E0CDE7FFE709208DF830
:105560003D0140F2E800C2F200000DF23D110122BF
:105570004FF0FF33FDF712FD9DF83D0107281FD1C5
:10558000FFE77B9806281BD1FFE77B9801307B90D3
:1055900069464FF6FF7008600021F0224FF4A073B7
:1055A0000846FEF7E1F843F60010C0F6020069462F
:1055B00008601421782308461A46FDF76DFE00E0C6
:1055C000CCE7FFE709208DF83C0140F2E800C2F289
:1055D00000004FA901224FF0FF33FDF7DFFC9DF8DB
:1055E0003C0101281FD1FFE77B9807281BD1FFE76B
:1055F0007B9801307B9069464FF6FF700860002170
:10560000F0224FF4A0730846FEF7AEF84EF2807019
:10561000C0F60000694608601421782308461A463F
:10562000FDF73AFE00E0CDE7FFE709208DF83B01EA
:1056300040F2E800C2F200000DF23B1101224FF0EF
:10564000FF33FDF7ABFC9DF83B0101281FD1FFE7BD
:105650007B9808281BD1FFE77B9801307B90694637
:105660004FF6FF7008600021F0224FF4A073084647
:10567000FEF77AF84EF28070C0F6000069460860C6
:105680001421782308461A46FDF706FE00E0CCE711
:10569000FFE709208DF83A0140F2E800C2F200006D
:1056A0000DF59D7101224FF0FF33FDF777FC9DF85A
:1056B0003A0101281FD1FFE77B9809281BD1FFE79A
:1056C0007B9801307B9069464FF6FF70086000219F
:1056D000F0224FF4A0730846FEF746F84EF28070B1
:1056E000C0F60000694608601421782308461A466F
:1056F000FDF7D2FD00E0CCE7FFE709208DF8390186
:1057000040F2E800C2F200000DF2391101224FF020
:10571000FF33FDF743FC9DF8390106281FD1FFE751
:105720007B980A281BD1FFE77B9801307B90694664
:105730004FF6FF7008600021F0224FF4A073084676
:10574000FEF712F84CF68000C0F6010069460860CA
:105750001421782308461A46FDF79EFD00E0CCE7A9
:105760007B980B2852D1FFE769464FF6FF701190E6
:10577000086000211491F0220F924FF4A07310934F
:105780000846FDF7F1FF0F9A109B11981499EC460B
:10579000CCF800000846FDF7E7FF1198149A694617
:1057A0004A60086044F6EB52C0F6050232201390BE
:1057B0003C214FF478431293FDF79CFE1199129B04
:1057C0001398DDF850C06A46C2F804C0116044F670
:1057D000B752C0F605026421FDF78CFE13984FF610
:1057E0000031C0F603016A461160822178231A460F
:1057F000FDF752FD149840F27C11C2F200010870CE
:105800007B904FF4FA70FBF7B3FAFFE7FFE740F243
:105810007C10C2F200000078022840F0A582FFE769
:1058200069464FF6FF7008600021F0224FF4A07324
:105830000846FDF799FF41F60020C0F603006946CF
:1058400008601421782308461A46FDF725FDFFE776
:1058500009208DF8380140F2E800C2F200004EA99C
:1058600001224FF0FF33FDF799FB9DF83801022824
:105870001ED1FFE77B98D8B9FFE77B9801307B907A
:1058800069464FF6FF7008600021F0224FF4A073C4
:105890000846FDF769FF45F60000C0F601006946BD
:1058A00008601421782308461A46FDF7F5FC00E04D
:1058B000CEE7FFE709208DF8370140F2E800C2F299
:1058C00000000DF2371101224FF0FF33FDF766FBA8
:1058D0009DF83701F8B9FFE77B9801281BD1FFE756
:1058E0007B9801307B9069464FF6FF70086000217D
:1058F000F0224FF4A0730846FDF736FF47F2007020
:10590000C0F60000694608601421782308461A464C
:10591000FDF7C2FC00E0CDE7FFE709208DF8360176
:1059200040F2E800C2F200000DF59B7101224FF039
:10593000FF33FDF733FB9DF8360102281FD1FFE747
:105940007B9802281BD1FFE77B9801307B9069464A
:105950004FF6FF7008600021F0224FF4A073084654
:10596000FDF702FF45F60000C0F601006946086039
:105970001421782308461A46FDF78EFC00E0CCE798
:10598000FFE709208DF8350140F2E800C2F200007F
:105990000DF2351101224FF0FF33FDF7FFFA9DF8AC
:1059A000350102281FD1FFE77B9803281BD1FFE7B1
:1059B0007B9801307B9069464FF6FF7008600021AC
:1059C000F0224FF4A0730846FDF7CEFE45F6000026
:1059D000C0F60100694608601421782308461A467B
:1059E000FDF75AFC00E0CCE7FFE709208DF8340111
:1059F00040F2E800C2F200004DA901224FF0FF334F
:105A0000FDF7CCFA9DF8340101281FD1FFE77B9800
:105A100004281BD1FFE77B9801307B9069464FF645
:105A2000FF7008600021F0224FF4A0730846FDF7D4
:105A30009BFE4EF28070C0F600006946086014219B
:105A4000782308461A46FDF727FC00E0CDE7FFE77C
:105A500009208DF8330140F2E800C2F200000DF297
:105A6000331101224FF0FF33FDF798FA9DF833010F
:105A7000F8B9FFE77B9805281BD1FFE77B98013039
:105A80007B9069464FF6FF7008600021F0224FF4CA
:105A9000A0730846FDF768FE47F20070C0F60000EC
:105AA000694608601421782308461A46FDF7F4FB7E
:105AB00000E0CDE7FFE709208DF8320140F2E80071
:105AC000C2F200000DF5997101224FF0FF33FDF78E
:105AD00065FA9DF8320107281FD1FFE77B98062859
