:020000040800F2
:1000000090070020ED010008D5350008E927000819
:10001000D1350008B9080008A53E0008000000001E
:10002000000000000000000000000000DD350008B6
:10003000D508000800000000D9350008E1350008A7
:10004000070200080702000807020008070200086C
:10005000070200080702000807020008070200085C
:10006000070200080702000807020008BD08000890
:10007000C908000807020008070200080702000874
:10008000070200080702000807020008070200082C
:10009000070200080702000807020008070200081C
:1000A000070200080702000807020008070200080C
:1000B00007020008070200080702000807020008FC
:1000C00007020008070200080702000807020008EC
:1000D00007020008193D000807020008070200088F
:1000E00007020008070200080702000807020008CC
:1000F00007020008070200080702000807020008BC
:1001000007020008070200080702000807020008AB
:10011000070200080702000807020008070200089B
:10012000070200080702000807020008070200088B
:10013000070200080702000807020008070200087B
:10014000070200080702000807020008070200086B
:10015000070200080702000807020008070200085B
:10016000070200080702000807020008070200084B
:10017000070200080702000807020008070200083B
:10018000070200080702000807020008070200082B
:10019000070200080000000007020008070200082C
:1001A000070200080702000807020008070200080B
:1001B00007020008070200080702000807020008FB
:1001C00007020008070200080702000807020008EB
:1001D0000702000807020008DFF80CD000F088FAD8
:1001E00000480047D53E0008900700200648804799
:1001F00006480047FEE7FEE7FEE7FEE7FEE7FEE70C
:10020000FEE7FEE7FEE7FEE7E5350008D901000856
:100210002DE9F05F0546002092469B46884606463B
:10022000814640241BE0284641464746224600F0CE
:1002300096F853465A46C01A914110D311461846B3
:10024000224600F07DF82D1A67EB01084F46224642
:100250000120002100F074F817EB00094E41201E28
:10026000A4F10104DFDC484631462A464346BDE896
:10027000F09F40EA01039B0703D009E008C9121F61
:1002800008C0042AFAD203E011F8013B00F8013B50
:10029000521EF9D27047D2B201E000F8012B491E7C
:1002A000FBD270470022F6E710B513460A46044613
:1002B0001946FFF7F0FF204610BD30B505462A4627
:1002C0000B4612F8010B13F8014B08B1A042F8D00D
:1002D0001CB1002802D06D1CF1E7284630BD10B5D6
:1002E000044604E00B7800F8013B03B1491C521EA0
:1002F000F8D2204610BD30B505460020034600E088
:100300005B1C934205D2EC5CC85C201A01D1002C26
:10031000F6D130BD30B50B46014600202022012425
:1003200009E021FA02F59D4205D303FA02F5491BC3
:1003300004FA02F52844151EA2F10102F1DC30BDD9
:10034000202A04DB203A00FA02F100207047914095
:10035000C2F1200320FA03F3194390407047202A8A
:1003600004DB203A21FA02F00021704721FA02F35F
:10037000D040C2F1200291400843194670472DE950
:10038000FE4F804681EA0300C00F0C46009021F02A
:10039000004123F00045B8EB0200A94105D24046D8
:1003A000214690461C460B46024623F0004010436F
:1003B00047D0270DC7F30A00C3F30A510290401A31
:1003C000019040286BDAC3F3130040F4801B0098BF
:1003D000924620B10023D2EB030A63EB0B0B01988A
:1003E0005946C0F140025046FFF7AAFF06460D46A7
:1003F00050465946019A00F093F910EB080061410C
:10040000002487EA115284EAE7731A4340D0009A25
:1004100062B3019A012A4FEA075215DC001B61EB17
:1004200002014FF0004202EA0752CDE90042001CEF
:1004300041F5801132462B4600F093F903B0BDE838
:10044000F08F40462146F9E7001B61EB0201001CDA
:1004500041F5801300185B412018A2F5001747EB07
:10046000030140EAD570B6196D4111E06D084FEAFD
:10047000360645EAC0754FEA0752001B61EB0201E0
:10048000001C41F5801149084FEA30000019514124
:1004900032462B4603B0BDE8F04F00F053B9009848
:1004A000012240000023D0EB020263EBE0730098CE
:1004B00021464FEAE074B8EB000061EB0401E9E784
:1004C00083F000435BE781F0004158E72DE9FE4FE0
:1004D00081EA030404F0004421F0004100944FF04D
:1004E000000B23F0004350EA01045ED052EA0304FB
:1004F0005BD0C3F30A54C1F30A552C44A4F2F3347D
:100500000194A0FB0254C1F3130141F48011C3F321
:10051000130343F4801301FB024400FB034E840ADF
:10052000970A44EA815447EA8357A4FB0768029577
:100530008D0A05FB07854FEA932C04FB0C54270515
:10054000029D4FEA065847EA1637B5EB08056EEBF1
:10055000070C870E920E47EA811742EA8312A7FB27
:100560000201B6EB0B0164EB00042B0D43EA0C33E4
:100570005E1844EB1C50DA465146E7FB0201C5F316
:1005800013044FEA0B3343EA14534FEA0432019C3D
:1005900043EA0603A4F10C040294009CCDE900B4E4
:1005A00000F0DFF803B0BDE8F08F00200146F9E766
:1005B0002DE9F04D81EA030404F0004B21F00045E1
:1005C00014464FF0000A23F0004150EA050220D003
:1005D00054EA01021DD0C5F30A570246C5F31303BE
:1005E000C1F31300C1F30A5640F4801543F480139D
:1005F000A7EB0608101BD64608F2FD3873EB050082
:1006000002D308F1010801E092185B41B8F1000F34
:1006100003DA00200146BDE8F08D00204FF4801180
:10062000064684460EE0171B73EB050705D3121B25
:1006300063EB050306434CEA010C49084FEA30001E
:1006400092185B4150EA0107EDD152EA030012D043
:1006500082EA040083EA0501084305D0101BAB4180
:1006600006D20122002306E000224FF0004302E000
:100670006FF0010253101AEB06004CEB085110EB1F
:100680000A0041EB0B01BDE8F04D00F05BB8C1F38F
:100690000A52C1F3130140F2FF3341F480119A4230
:1006A00002DA00200146704740F233439A42A2F238
:1006B000334202DC5242FFF752BEFFF741BE000058
:1006C00030B5041E71F1000404DB4FF000444042D9
:1006D00064EB0101141E73F1000405DB1C464FF0AE
:1006E0000043524263EB0403994208BF904230BD7D
:1006F0001CB509480090094801900546009C06E099
:10070000E06840F0010394E8070098471034AC42D9
:10071000F6D3FFF765FD000050C1050870C105085C
:10072000202A06DBCB17203A41FA02F043EAE073B5
:1007300006E041FA02F3D040C2F1200291400843A2
:100740001946704710B5141E73F1000408DA401CF6
:1007500041F1000192185B411A4301D120F00100E0
:1007600010BD2DE9F04D92469B4611B1B1FA81F2D0
:1007700002E0B0FA80F220329046FFF7E1FD044635
:100780000F4640EA0A0041EA0B0153465A46084325
:1007900013D0114653EA010019D0C8F14002504667
:1007A000FFF7DDFD05460E46504659464246FFF727
:1007B000C7FD084305D0012004E020463946BDE8C6
:1007C000F08D0020054346EAE0762C4337430A9833
:1007D0006305E40AA0EB08000022FD0A44EA47543E
:1007E0000A3002D500200146E9E7010510196941E8
:1007F000DDE9084500196941BDE8F04DA2E70000B8
:100800002DE9F04107460E4641F2280550203946B1
:1008100098461446C4F6000502F0E2FB512031462A
:1008200002F0DEFB5220214602F0DAFB5320414663
:1008300002F0D6FBB8B2A1B202F0D0FC1020002129
:1008400004220123A5F110044027286081F0070647
:1008500003FA06F616F0700F20462A6008BF2846F5
:10086000072901F10101076045F8102CEED30021A2
:1008700004224023072901F101012A602B6045F879
:10088000102CF7D3002104220123402781F0070018
:1008900003FA00F010F0220F20462A6008BF284615
:1008A000072901F10101076045F8102CEED3102053
:1008B00045F8100CBDE8F081FEE7000040F2301072
:1008C000C2F2000000F056B940F29010C2F20000EF
:1008D00000F050B9704700002DE9F04381B0904618
:1008E0000A4641F2180901461346C4F60009FFF70B
:1008F00087FF1020C9F810000020042101224023A6
:1009000080F007044D4602FA04F445F8101F14F075
:10091000720F18BF4D46072800F101002B60C9F87F
:100920000010EDD3C8F3072000210422402300BFAC
:1009300081F007054F4620FA05F547F8102FED071F
:1009400018BF4F46072901F101013B60C9F800209B
:10095000EED35FFA88F000210422402381F00707DC
:100960004E4620FA07F746F8102FFF0718BF4E46ED
:10097000072901F101013360C9F80020EED31020EE
:10098000C9F8000001B0BDE8F08300002DE9F04F88
:1009900083B0DDF830B090460A460BFB08010193A6
:1009A0000BFB032341F2180A0139013BC4F6000A8C
:1009B000FFF726FF1020CAF81000002004210122B2
:1009C000402300BF80F00707554602FA07F745F8B5
:1009D000101F17F0720F18BF5546072800F10100CD
:1009E0002B60CAF80010EDD3019800283CD04FEAE4
:1009F0004808002004224023029005E00299019853
:100A00000131814202912FD0BBF1000FF6D00D9839
:100A100002994FF0000E08FB010C03E00EF1010EED
:100A2000DE45EBD0B8F1000FF8D00021002400BF64
:100A30001CF80100002500BF85F00709564620FA82
:100A400009F746F8102FFF0718BF5646072D05F186
:100A500001053360CAF80020EED301345C45E7D1CC
:100A600001314145E2D1D9E71020CAF8000003B0B6
:100A7000BDE8F08FEFF3108072B600BFFEE7000014
:100A8000014690F82500022827D180B50868D1E9F1
:100A900010CE8A6C036823F00E030360136823F4FE
:100AA00080731360026822F0010202600EF01F00E2
:100AB000012202FA00F0CCF80400D1E913205060C2
:100AC000486D30B1026822F480720260D1E91602EA
:100AD00042600020BDE8804002E00420C86301209D
:100AE000012281F82520002281F82420704700008F
:100AF00090F82510022930D180B50168D0E910CED8
:100B0000826C0B6823F00E030B600B6823F001036B
:100B10000B60116821F4807111600EF01F02012139
:100B200001FA02F2CCF80420D0E913325A60426D87
:100B300032B1136823F480731360D0E91623536035
:100B400080F82510826B002180F824100AB19047AC
:100B50000021BDE88040084670470421C16301219F
:100B6000002280F8251080F82420084670470000F5
:100B7000C06B7047B0B5D0E910C30268DCF8001054
:100B800003F01F030424D2F800E09C400C4218BF7D
:100B90001EF004051BD102249C400C4218BF1EF01D
:100BA000020520D1D94009071CD51EF0080108BF55
:100BB000B0BD116821F00E011160012101FA03F2AC
:100BC000CCF80420C16380F82510416B18E011684F
:100BD000890603D4116821F004011160CCF80440A7
:100BE000016B91B9B0BD1168890606D4116821F076
:100BF0000A011160012180F82510CCF80440C16A77
:100C00000022002980F82420ECD0BDE8B04008473D
:100C100000284FF0010C00F08A802DE9F04F0021F0
:100C2000C4F2020103684FF6F83201F5816ECBF68B
:100C3000FD72734538BF02F580624CF6CD441A440C
:100C4000CCF6CC44A2FB042903F0FC02A2F108027A
:100C5000A2FB042800F1080B01F580646FF0030685
:100C60009BE8040C3CBF0024C4F2020401F50265B9
:100C700006EA9906734538BF01F50065C0E91046DC
:100C8000022480F825401C6847F6F07724EA07071D
:100C9000D0E9054147EA0A0747EA0B07D0E907E927
:100CA0003C43214341EA0E0141EA09011143196025
:100CB0000021C4F2020101F50861C164C8F3041106
:100CC00073190CFA01F58364B2F5804F056504BF12
:100CD00000214160476840F68401FAB21A607B1E29
:100CE000C4F20201032B0D6012D8013A01EB82031A
:100CF000002702F01F02012643F87C7F01F1BC07A8
:100D000006FA02F2C0E91537C265C1F8C02003E057
:100D10000021C0E91511C1654FF0000C0121C0F898
:100D20003CC080F8251080F824C0BDE8F04F604634
:100D30007047000090F824C0BCF1010F43D04FF081
:100D4000010C80F824C090F825C0BCF1010F37D108
:100D50002DE9F0414FF0020C80F825C04FF0000C57
:100D6000C0F83CC0D0F800C000F14C0E9EE8304006
:100D7000DCF80060BEF1000F26F00106CCF8006040
:100D800065601CBFD0E916456560D0E910568468DF
:100D900006F01F060127D0F8308007FA06F66E60CD
:100DA000CCF80430102C0B4604BF13460A46B8F1A9
:100DB000000FCCF80830CCF80C2006D00E210BE048
:100DC000002180F8241002207047DCF8001021F088
:100DD0000401CCF800100A21DCF800201143CCF803
:100DE0000010806C0168C90303D5016841F480716B
:100DF0000160BEF1000F05D0DEF8000040F4807005
:100E0000CEF80000DCF8000040F00100CCF8000053
:100E10000020BDE8F0810000B0B5044600F0ECF819
:100E2000054640F21C00C2F200000068611C18BFB9
:100E3000044400BF00F0E0F8401BA042FAD3B0BD6C
:100E40002DE9F04F83B00E68002E00F0C68000F14F
:100E5000200241F2004C009200F13847C4F6000C29
:100E600006224FEAB725604508BF0522052D38BF89
:100E70004FEAB722002500274FF0000A01920AE04E
:100E80000E680AF1010A36FA0AF207F1020705F1C3
:100E9000040500F0A280012202FA0AFC16EA0C09FD
:100EA000EED0D1F804B003220BF00308A8F101063C
:100EB000012E02FA07F610D8D0F808E0CC682EEA26
:100EC0000602BC40224382604268CBF3001422EA4F
:100ED0000C0204FA0AF422434260B8F1030F1ED058
:100EE000C2688C68B243BC402243B8F1020FC260B2
:100EF00015D16FF00302009C02EA5A0B54F80BC0A4
:100F000005F01C030F22D1F8108002FA03FE2CEA30
:100F10000E0C08FA03F343EA0C0344F80B300268A2
:100F20004B68B24303F00306BE40324313F4403F24
:100F30000260A5D041F26003C4F202031A6840F2D5
:100F4000004E42F001021A601A68C4F2010E02F06B
:100F500001020292029A2AF003024FF6084C7244F0
:100F6000CFF6FF7C52F80C3005F00C060F24B4408D
:100F7000A343019C04FA06F6334342F80C30DEF832
:100F800008204B6842EA090640F20C4CDC0258BFCC
:100F900022EA0906CEF80860C4F2010CDCF8002051
:100FA0009C0242EA090658BF22EA0906CCF8006012
:100FB000DEF804209C0342EA090658BF22EA09062B
:100FC000CEF80460DEF80020DB0342EA090658BFD1
:100FD00022EA0906CEF8006052E703B0BDE8F08FC0
:100FE0000069084018BF0120704700001823002A3C
:100FF00008BF2823C150704740F28830C2F2000079
:101000000068704740F21C0040F28831C2F20000D4
:10101000C2F2000100680A681044086070470000CE
:1010200080B5032000F092F8002000F009F80028B5
:101030001CBF012080BD00F031F8002080BD000001
:1010400040F21C01C2F200010968002904BF01201E
:10105000704710B5044640F20400C2F200004FF49D
:101060007A720068B2FBF1F1B0FBF1F000F0D0FE53
:1010700001460F2C4FF001000ED8002918BF10BDFB
:101080004FF0FF302146002200F034F840F22001FA
:101090000020C2F200010C6010BD000082B041F2DD
:1010A0005800C4F20200816841F00101816081684A
:1010B00001F0010101910199016841F08051016045
:1010C000006800F080500090009802B000F0C8B8AE
:1010D000002848BF704700F01F01012202FA01F109
:1010E0001C2202EAD0004EF20012CEF20002815021
:1010F0007047000010B54EF60C5CCEF2000CDCF828
:101100000030C3F3022E8EF00704042C28BF042401
:10111000BEF103034FF0FF3E0EFA04F438BF002384
:10112000A14399400EFA03F39A43114300F1604240
:1011300000F00F03090102F56442043B63440028F8
:1011400048BF03F10C02117010BD00004EF60C51A7
:10115000CEF200010A684FF6FF031A4060F30A223C
:1011600042F0806040F0FD700860704747F2000C6C
:10117000C4F2000CDCF80020B0F5007F35D0002868
:1011800066D1DCF8800002F4C06220F48070B2F511
:10119000806FCCF8800026D1DCF80000012262F3D9
:1011A0004A20CCF8000040F20400C2F200000068BF
:1011B000322358434DF68363C4F21B33A0FB030371
:1011C00002EB9340002200BFDCF81410013842F11A
:1011D0000003490501D5002BF6D1DCF814004005C9
:1011E00044BF0320704700207047DCF8800002F401
:1011F000C06140F48070B1F5806FCCF88000F2D10E
:10120000DCF80000012161F34A20CCF8000040F234
:101210000400C2F200000068322250434DF683629F
:10122000C4F21B32A0FB020201EB9240002200BF7D
:10123000DCF81410013842F10003490501D5002BF8
:10124000F6D1DCF81400400544BF03207047CAE71C
:10125000022060F34A22CCF80020002070470000F2
:1012600047F20800C4F20000016841F480410160C7
:10127000704700002DE9F04381B08146807841F24B
:1012800088060007C4F2020601D400204AE056F89E
:10129000300C5FEAC0080BD456F8300C40F0805098
:1012A00046F8300C56F8300C00F080500090009852
:1012B00047F20004C4F20004206840F4807020600B
:1012C000FFF79AFE054600BF2068C70508D4FFF760
:1012D00093FE401B0328F7D30320002F03D418E00C
:1012E0000020002F15D5B16811F4407100F029815C
:1012F000D9F85020914240F02981C90740F035814A
:1013000038B9B068D9F8501020F440700843B06084
:101310000020B8F1000F05D456F8301C21F08051A0
:1013200046F8301CD9F80010CA0716D18A071DD418
:101330004A0724D40A072BD4CA0632D48A0639D4E1
:101340004A0640D40A0647D4CA054ED48A0355D467
:101350008A055CD44A0563D472E03268D9F8043057
:1013600022F003021A4332608A07E1D53268D9F8C5
:10137000083022F00C021A4332604A07DAD532688C
:10138000D9F80C3022F030021A4332600A07D3D564
:101390003268D9F8103022F0C0021A433260CA060F
:1013A000CCD53268D9F8143022F440721A43326036
:1013B0008A06C5D53268D9F8183022F440621A433B
:1013C00032604A06BED53268D9F81C3022F4405249
:1013D0001A4332600A06B7D53268D9F8203022F4B1
:1013E00040421A433260CA05B0D53268D9F8243079
:1013F00022F440321A4332608A03A9D57269D9F8BF
:10140000283022F003021A4372618A05A2D532689D
:10141000D9F82C3022F440221A4332604A050FD505
:101420003268D9F8303022F440121A43B3F5801FE5
:10143000326005D156F87C2C42F4801246F87C2CA0
:101440000A050FD53268D9F8343022F440021A4325
:10145000B3F5800F326005D156F87C2C42F480122F
:1014600046F87C2CCA040FD53268D9F8383022F0FF
:1014700040721A43B3F1807F326005D156F87C2C5C
:1014800042F4801246F87C2C8A040FD53268D9F8D1
:101490003C3022F040621A43B3F1006F326005D154
:1014A00056F87C2C42F4801246F87C2C4A040FD566
:1014B0003268D9F8403022F040621A43B3F1006F2D
:1014C000326005D156F87C2C42F4801246F87C2C10
:1014D0000A040FD53268D9F8443022F040521A433A
:1014E000B3F1805F326005D156F87C2C42F4803233
:1014F00046F87C2CCA030FD53268D9F8483022F060
:1015000040421A43B3F1804F326005D156F87C2C2B
:1015100042F4803246F87C2C49030FD57169D9F822
:101520004C2021F440111143B2F5001F716105D127
:1015300056F87C1C41F4801146F87C1C01B0BDE8D3
:10154000F0830021C9073FF4DBAE0EE0B168B2685A
:1015500021F4407142F48032B260B26822F48032E9
:10156000B260B160C9073FF4CBAE0446FFF744FD5B
:10157000054641F2893700BFB068800709D4FFF7FC
:101580003BFD401BB842F7D3032000287FF4C1AED7
:10159000B7E6204600287FF4BCAEB2E62DE9F0475E
:1015A000002800F0FE8042F2000AC4F2020A04465B
:1015B000DAF800000D4600F00F0088420DD2DAF88C
:1015C000000020F00F002843CAF80000DAF80000FD
:1015D00000F00F00A84240F0E480216841F20808C2
:1015E000C807C4F202080CD14FF000092068810737
:1015F0004BD4B9F1000F61D0D8F8000020F0F00012
:101600005AE0606858F8082C022800F0C8800328C7
:1016100040F0CA80920140F1C480D8F80420D8F884
:10162000043042F20046C3F3031302F00302D8F879
:1016300004700133C0F2F406032A04BF41F200260D
:10164000C0F27A06B6FBF3F2D8F80430C7F30627E7
:101650007A43C3F34163022707EB4303B2FBF3F280
:101660004BF20043C0F2C4439A4240F2E480D8F8FF
:10167000002012F0F00F00F0D480890740F1DB80E9
:10168000A168002940F0D780CBE0410705D5D8F804
:10169000001041F4E061C8F80010000706D5D8F842
:1016A0000000072161F30D20C8F80000D8F8000001
:1016B000A16820F0F0000843C8F80000DAF8000044
:1016C00000F00F00A84219D9DAF8000020F00F004E
:1016D0002843CAF80000FFF78FFC064641F288371E
:1016E000DAF8000000F00F00A84207D0FFF784FCF2
:1016F000801BB842F4D90320BDE8F0872068410779
:1017000007D5D8F80010E26821F4E0611143C8F869
:101710000010000708D5D8F80000216920F46050B7
:1017200040EAC100C8F80000D8F8000042F20041C9
:10173000C0F2F40100F00C000428084600F09C8080
:10174000D8F8000000F00C00082841F20020C0F298
:101750007A0000F09180D8F8002002F00C020C2AE8
:1017600040F08980D8F80420D8F8043002F0030251
:10177000C3F30313D8F804700133032A08BF0146EA
:10178000B1FBF3F0D8F80410C7F30627C1F34161A9
:101790000222784302EB4101B0FBF1F06CE09103CF
:1017A00004D40120BDE8F0875105FAD5D8F800101F
:1017B00001F00C0104293ED0D8F8001001F00C0112
:1017C000082938D0D8F8001001F00C010C2932D1CA
:1017D000D8F80410D8F8042042F20047C2F30312EC
:1017E00001F00301D8F804300132C0F2F4070329F4
:1017F00004BF41F20027C0F27A07B7FBF2F1D8F834
:101800000420C3F306235943C2F34162022303EBCE
:101810004202B1FBF2F14BF20042C0F2C4429142EB
:1018200009D9D8F80010082262F307114FF0010916
:10183000C8F8001001E04FF00009D8F8001021F0BE
:1018400003010843C8F80000FFF7D6FB064641F243
:10185000883700BFD8F80000616800F00C00B0EBDA
:10186000810F3FF4C3AEFFF7C7FB801BB842F1D92D
:101870000320BDE8F0870020D8F800104BF678224E
:10188000C1F30311C0F60002515C40F2040201F002
:101890001F0120FA01F140F22000C2F200000068AE
:1018A000C2F200021160BDE8F047FFF7C9BB0000BB
:1018B00040F2040041F20801C2F20000C4F2020149
:1018C000006809684BF68822C1F30221C0F60002C5
:1018D000515C01F01F01C8407047000040F2040055
:1018E00041F20801C2F20000C4F202010068096876
:1018F0004BF68822C1F3C221C0F60002515C01F010
:101900001F01C8407047000041F20C01C4F20201FF
:1019100051F8040C42F20042C0F2F40200F00C0054
:101920000428104608BF704751F8040C00F00C0062
:10193000082841F20020C0F27A0025D051F8043C7A
:1019400003F00C030C2B1CBF0020704780B5D1F8AE
:1019500000C00B680CF0030CC3F3031E0B680EF100
:10196000010EBCF1030F08BF02460968B2FBFEF08E
:10197000C3F30623C1F341610222584302EB410144
:10198000B0FBF1F0BDE8804070470000002804BFC4
:10199000012070472DE9F04182B00446007841F201
:1019A0000006C007C4F202061DD12078800737D494
:1019B000207800075AD42078400778D42078800611
:1019C00000F1BF80E569002D00F01E82B06800F0D4
:1019D0000C000C2840F01E81012D40F09881012060
:1019E00002B0BDE8F081B06800F00C01F068082991
:1019F00054D0032281F00C0122EA00000844B0FA1E
:101A000080F040094AD165683068B5F5A02F00F034
:101A1000C680B5F5803F40F0C98040F48030CBE00F
:101A2000B068F16800F00C00042864D001F00301F4
:101A300080F00C0081F002010844B0FA80F0400907
:101A400059D1E1683068002900F0D18040F48070FD
:101A50003060FFF7D1FA05463068400500F1FC80A0
:101A6000FFF7CAFA401B0228F6D936E16169D6F8B9
:101A70009400002900F0818040F00100C6F8940035
:101A8000FFF7BAFA054600BFD6F89400800792D453
:101A9000FFF7B2FA401B0228F6D91EE13068800336
:101AA0007FF583AF606800287FF47FAF39E0B06DC9
:101AB0005FEAC00808D4B06D40F08050B065B06DEA
:101AC00000F080500190019847F20007C4F200072F
:101AD0003868C00529D4386840F480703860FFF752
:101AE0008BFA05463868C0051FD4FFF785FA401BFE
:101AF0000228F7D9F1E03068400501D5E06880B1EF
:101B00007068216920F0FE4040EA0160706040F298
:101B10002000C2F200000068FFF792FA00283FF4AC
:101B200047AF012002B0BDE8F081A568D6F890006B
:101B3000052D00F0AE80012D40F0B48040F0010092
:101B4000B8E0A169D6F89800002900F08D8040F037
:101B50000100C6F89800FFF74FFA0546D6F898003E
:101B600080073FF52FAFFFF747FA401B02284FF0E1
:101B70000300F3D902B0BDE8F08120F00100C6F8FF
:101B80009400FFF739FA0546D6F8940080077FF5F0
:101B900012AFFFF731FA401B0228F5D99DE040F45F
:101BA00080203060306840F4803005E020F48030E0
:101BB0003060306820F480203060FFF71DFA002D7F
:101BC000054610D0306880033FF5EFAEFFF714FAFA
:101BD000401B6428F6D980E0FFF70EFA401B64280A
:101BE0004FF00300C6D830688003F5D4DDE620F45A
:101BF00080703060FFF700FA054600BF306840058E
:101C00007FF5D6AEFFF7F8F9401B02284FF003002E
:101C1000F4D9AFE7306820F080703060FFF7ECF95E
:101C2000022D05460CD100BF3068800140F1A8802C
:101C3000FFF7E2F9401B02284FF00300F4D999E7BF
:101C40003068800140F1D980FFF7D6F9401B0228A7
:101C50004FF00300F4D98DE77068216920F0FE4051
:101C600040EA01607060A3E620F00100C6F8980029
:101C7000FFF7C2F9054600BFD6F8980080077FF548
:101C8000A1AEFFF7B9F9401B02284FF00300F3D9CA
:101C900070E740F00400C6F89000D6F8900040F0DD
:101CA000010007E020F00100C6F89000D6F890008F
:101CB00020F00400C6F89000FFF79EF9002D0546BD
:101CC00041F2883716D000BFD6F89000800715D4AF
:101CD000FFF792F9401BB842F6D9032002B0BDE8E5
:101CE000F08100BFFFF788F9401BB8424FF00300B6
:101CF0003FF640AFD6F890008007F3D4B8F1000F5C
:101D00003FF55CAEB06D20F08050B06556E6F068EF
:101D1000216A00F003028A427FF403AF626A6FF027
:101D20000F0300F0F00103EB021291427FF4F9AED1
:101D3000A16A00F4FE42B2EB012F7FF4F2AEE16A39
:101D400000F07842B2EBC16F7FF4EBAE226B002360
:101D5000CFF6E07303EA025200F4C001A2F50012CC
:101D600091427FF4DEAE616B4FF07E4202EA016188
:101D700000F0C06001F17E4188427FF4D2AE43E0C2
:101D8000F06848F20C01C0F29F1104F1200700EA4C
:101D9000010C8ECF6FF00F00D4E90C5400EB021051
:101DA0000022CFF6E07241EA0C0102EA0552084334
:101DB000A2F500124FF07E4540EA032005EA0465D3
:101DC000104305F17E4540EAC7602843F060306863
:101DD00040F080703060F06840F08070F060FFF795
:101DE0000BF90446306880010ED4FFF705F9001B9B
:101DF00002284FF00300F5D9BCE6F0684FF6FC71FD
:101E0000CFF6EE610840F060002002B0BDE8F0813E
:101E1000411E0020B0EB116F1CBF012070474EF235
:101E20001002CEF2000251604EF62351CEF20001B4
:101E3000F0230B70072190601160704790F88410B8
:101E4000012904BF022070472421C0F888100168CE
:101E50000A680B6822F0005223F001030B60002394
:101E600043660A602021C0F8881080F88430002082
:101E700070470000704700007047000090F8842011
:101E8000012A04BF02207047B0B50123242280F844
:101E90008430C0F888200268D0F864E0D2F800C02E
:101EA0001468BEF1000F24F001041460946824F05B
:101EB000606441EA040191601BD09168936843F229
:101EC000846E5B0FC0F6020E43F28C651EF8034071
:101ED000C0F60205EB5CE400B4FBF3F3C1F342612E
:101EE000A0F86A301EF80130695CDB00B3FBF1F347
:101EF00001E0A0F86A302021A0F86830C2F800C0E4
:101F0000C0F88810002180F884100020B0BD0000C7
:101F100090F88420012A04BF02207047B0B5012345
:101F2000242280F88430C0F888200268D0F864E069
:101F3000D2F800C01468BEF1000F24F00104146050
:101F4000946824F0604441EA040191601BD09168D8
:101F5000936843F2846E5B0FC0F6020E43F28C6509
:101F60001EF80340C0F60205EB5CE400B4FBF3F39B
:101F7000C1F34261A0F86A301EF80130695CDB00F1
:101F8000B3FBF1F301E0A0F86A302021A0F868303B
:101F9000C2F800C0C0F88810002180F8841000202A
:101FA000B0BD00007047000070470000B0B5016888
:101FB0000446D0F88800D4F88C50896809062CD5DE
:101FC00021282AD1206850E8020F216820F08000E3
:101FD00041E80202002AF5D1E06F38B1FEF750FD6A
:101FE00020B1E06FFEF7C4FD202835D0206850E80E
:101FF000000F216820F0C00041E80002002AF5D15E
:10200000206850E8020F216820F4000041E8020235
:10201000002AF5D12020C4F8880020688068400696
:102020004FF0000048D5222D18BFB0BD206850E801
:10203000020F216820F0400041E80202002AF5D199
:10204000D4F8800070B1FEF71BFD58B1D4F88000C1
:10205000FEF78EFD202805D11020C4F89000032043
:10206000B0BD00BF206850E8000F216820F49070D8
:1020700041E80002002AF5D14FF6FE70CEF6FF705F
:10208000216851E8021F2268014042E80213002B38
:10209000F6D1E06E012809D1206850E8000F2168D0
:1020A00020F0100041E80002002AF5D12020C4F8F9
:1020B0008C000020E0666067B0BD00007047000043
:1020C00070B5046840F62F03E2692168A6681340E2
:1020D000202B05D101F0200306F080555B1938D183
:1020E00040F60F0313400CD00123C1F2000306EAAF
:1020F000030C40F22013C0F200430B4013EB0C031F
:102100002DD1C36ED50616D5012B14D111F01003B5
:1021100011D010212162A168490600F1FC80B0F8BD
:102120005C10B0F85E20B0F85E30002B18BF914212
:1021300040F0528170BDD30240F1CB8016F4800391
:1021400000F0C7804FF480112162BDE87040FFF7B6
:102150002BBF416F0029EDD0BDE870400847D30781
:1021600018BF11F4807307D001232362D0F8903098
:1021700043F00103C0F89030930706F0010E0AD532
:10218000BEF1000F07D002232362D0F8903043F055
:102190000403C0F8903053070AD5BEF1000F07D0F2
:1021A00004232362D0F8903043F00203C0F890304B
:1021B00013070CD501F0200353EA0C0307D00823C2
:1021C0002362D0F8903043F00803C0F89030130534
:1021D0000BD511F0806308D04FF400632362D0F870
:1021E000903043F02003C0F89030D0F89030002BAE
:1021F000A0D092060AD501F0200106F0805289187D
:1022000004D0416F11B10446884720460168D0F8D8
:102210009020896802F0280201F04001891807D156
:102220000446FFF74BFF0020C4F8900070BD00BFCC
:10223000016851E8001F026821F4907142E8001320
:10224000002BF5D14FF6FE71CEF6FF71026852E811
:10225000022F03680A4043E80226002EF6D1C16E21
:10226000012909D1016851E8001F026821F010011D
:1022700042E80013002BF5D12021C0F88C1000217A
:10228000C166026841679168490640F1988000BFC5
:10229000016851E8021F026821F0400142E8021380
:1022A000002BF5D1D0F88010002900F0888043F28F
:1022B000A172C0F60002044608468A63FEF718FCC5
:1022C00000283FF437AFD4F88000816BBDE8704040
:1022D0000847130606D501F0800306F400069B1993
:1022E00040F0AB8053066ED511F040036BD000BFB9
:1022F000016851E8001F026821F0400142E8001324
:10230000002BF5D12021C0F8881000218167BDE89D
:10231000704000F067BAD0F8801009684A6893B23C
:10232000002B3FF407AFB0F85C60B342BFF402AFDC
:10233000A0F85E200968890635D400BF016851E81D
:10234000001F026821F4807142E80013002BF5D1D0
:10235000016851E8021F026821F0010142E80213FE
:10236000002BF5D1016851E8021F026821F04001FD
:1023700042E80213002BF5D12021C0F88C10002177
:10238000C16600BF016851E8001F026821F010011A
:1023900042E80013002BF5D1D0F88010044608461F
:1023A000FEF76EFB204602210167B0F85C10B0F822
:1023B0005E20891A89B2BDE87040FFF75BBDBDE8B9
:1023C0007040FFF77BBE13023ED511F080433BD037
:1023D000BDE87040FFF7E6BD891A00BF026852E809
:1023E000002F036822F4907243E80026002EF5D1F6
:1023F0004FF6FE72CEF6FF72036853E8023F06689E
:10240000134046E80235002DF6D12022C0F88C207A
:102410000022C266426700BF026852E8002F0368CC
:1024200022F0100243E80026002EF5D1022289B2E4
:102430000267BDE87040FFF71DBD816F00293FF4C2
:1024400079AEBDE870400847D2017FF573AEB1F1B7
:10245000FF3FC8BF70BDBDE87040FFF70DBD000075
:1024600010B5D0B10446D0F8880028B9002084F80F
:102470008400204600F026F82420C4F88800206854
:10248000A16A026822F00102026011B1204601F047
:10249000B3F8204601F040FA08B1012010BD2168D0
:1024A000486820F490404860886820F02A008860DE
:1024B000086840F0010220460A60BDE8104001F0C3
:1024C0000FB900002DE9F0419CB00446002502A898
:1024D00054211B95CDE91955CDE91755FDF7E2FEBD
:1024E000206843F60001C4F20101884202D01CB00A
:1024F000BDE8F0810120CDE9020502A8FEF7BAFE91
:10250000002818BFFEF7B6FA41F24C00C4F20200F0
:10251000416940F2080841F4804141614169002667
:1025200001F48041019101990168C4F2020841F06F
:1025300004010160006817A900F0040001900198EF
:10254000302017900220189007201B9040F60000C2
:10255000C4F60000CDE91966FEF772FC40F23015B2
:10256000C2F2000518208027C5E900802846C5E989
:102570000266C5E90476C5E906662E62FEF748FBE9
:10258000002818BFFEF776FAC4F88050AC6240F21B
:10259000901508F11400C2F200051921102285E8F7
:1025A000C7002846C5E90566C5E90766FEF730FBA2
:1025B000002818BFFEF75EFA252000210022E567FB
:1025C000AC62FEF797FD2520FEF782FD1CB0BDE84A
:1025D000F0810000D0F88C30202B0AD194460A46B6
:1025E00000294FF0010118BFBCF1000F04D10846CB
:1025F0007047022108467047B0B54FF0000EC0F892
:102600006CE0036848F20004C4F20004A3420DD059
:102610005B681B020AD500BF036853E8003F0468EB
:1026200043F0806344E800310029F5D1222182651E
:10263000A0F85CC0C0F890E0C0F88C10D0F88030F2
:102640001BB343F67901C0F6000143F6FD0443F2E3
:10265000B17E03F12C07C0F60004C0F6000E87E837
:102660001240016800259D632431044618466346E4
:10267000FEF760FB0146204639B11021C0F89010EA
:102680002021C0F88C10012121E0016951B100BF67
:10269000016851E8001F026841F4807142E80013AC
:1026A000002BF5D1016851E8021F026841F00101D9
:1026B00042E80213002BF5D1016851E8021F0268BD
:1026C00041F0400142E80213002BF5D10021BDE8A2
:1026D000B040084670470000704700007047000097
:1026E0002DE9F04381B00446D0F88800202809D1B4
:1026F000884600294FF0010018BF002A06D101B01A
:10270000BDE8F083022001B0BDE8F0830020C4F8EA
:10271000900021201D46C4F888001646FEF76CFC88
:10272000A4F85460A4F85660A1680646B1F5805F2D
:1027300002D12069002852D0C1464FF00008B4F8F9
:10274000560060B36F1C0FE0B9F1000F1ED019F8EE
:10275000010B21688862B4F856000138A4F85600CD
:10276000B4F85600D8B100BF2068C0690006EBD4A9
:10277000002FF9D0FEF740FC01464FF0030045B3AF
:10278000891BA94225D820680068EDE738F8020BBC
:1027900021686FF35F2088624FF00009DBE7206853
:1027A000C069400614D46F1C04E000BF2068C069F3
:1027B00040060DD4002FF9D0FEF71EFC01464FF065
:1027C000030035B1891BA94203D820680068EDE7F2
:1027D00000202021C4F8881001B0BDE8F0834FF03C
:1027E0000009ACE770470000FEE70000F0B585B0D7
:1027F00001F03AFC1F2400200021F0224FF4A073C6
:102800000094002500F086FC40F20806C2F20006A3
:10281000002700BF56F82720380181B2002000238E
:10282000CDE9004500F014FB0137052FF2D140F24D
:102830008420C2F2000002680DF10A0407A12046BC
:1028400001F046FC00271F260020502122460023CD
:10285000CDE9006700F0FCFA05B0F0BDC4A3CABD25
:1028600025640000B0B582B001F0FEFB1F240020FB
:102870000021F0224FF4A0730094002500F04AFCE0
:102880004CF21B12C0F60502002000210023CDE906
:10289000004500F0DDFA05A2002010210023CDE95B
:1028A000004500F0D5FA02B0B0BD00BFD5FDD4DAC6
:1028B000BDD3CAD5B4AEBFDACAFDBEDD000000008C
:1028C0002DE9F04182B001F0CFFB40F21F500090A3
:1028D00000200021F0224FF4A0734FF0000800F018
:1028E00019FC4CF242121F25C0F6050200200021FF
:1028F0000023CDE9005800F0ABFA40F28426C2F282
:102900000006306843F6944742F615440138C0F695
:102910000207C0F2010400FB047200201021002312
:10292000CDE9005800F094FA30682021013800FB0E
:102930000470002300F109020020CDE9005800F0E6
:1029400087FA3068A021013800FB0470F02200F102
:1029500015070020A023009700F038F902B0BDE869
:10296000F08100002DE9F04F83B001F07DFB1F20C6
:10297000009000200021F0224FF4A0734FF0000BD4
:1029800000F0C8FB40F2842AC2F2000ADAF8000024
:1029900044F6F811C0F600014FF4165200FB021085
:1029A0000424A0F51656002000213C225023CDE936
:1029B0000046FDF7EBFF00F0D3F810B103B0BDE81F
:1029C000F08F40F22C0740F22808C2F200075CA505
:1029D000C2F200085FA4002635E0DAF8000043F6F2
:1029E000944142F615420138C0F60201C0F20102DC
:1029F00000FB021000214844467A0020F0224FF4E8
:102A0000A0731F2400944FF4165400F083FB4BF680
:102A10009020C0F6000016FB04000424A0F5E12677
:102A2000002000213C225023CDE9004649A4FDF7B7
:102A3000ADFF00BF2046494601F03AFB00F090F898
:102A400000284E46BAD1DAF8000043F6944142F627
:102A500015420138C0F60201C0F2010200FB02106B
:102A60003044407AA0F130012846396001F020FB63
:102A700000F076F840B1B146DCE700BFB14600F0A7
:102A80006FF800284E46D5D1D8F800000128F5D1BE
:102A9000092E06F10109C8F800B09EDDB9F10B0F4F
:102AA000EDD101F0E1FA40F21F500090002000212A
:102AB000F0224FF4A0734FF0000800F02BFB4CF213
:102AC00042121F25C0F60502002000210023CDE997
:102AD000005800F0BDF9DAF8000043F6944642F6DB
:102AE00015440138C0F60206C0F2010400FB04627E
:102AF000002010210023CDE9005800F0A9F9DAF8F0
:102B000000002021013800FB0460002300F10902CD
:102B10000020CDE9005800F09BF9DAF80000A02170
:102B2000013800FB0460F02200F115070020A0230B
:102B3000009700F04BF803B0BDE8F04F00F0D6BAB4
:102B4000636865636B5F6E756D6265723A202578A8
:102B5000200D0A00706F733A202564200D0A0000D2
:102B600080B54FF090401021FEF73AFAB0B14FF027
:102B700090402021FEF734FAD8B14FF09040402128
:102B8000FEF72EFAF0B90A20FEF746F94FF0904012
:102B90004021FEF725FAA8B9032080BD0A20FEF7E0
:102BA0003BF94FF090401021FEF71AFA50B901207E
:102BB00080BD0A20FEF730F94FF090402021FEF74B
:102BC0000FFA08B1002080BD022080BD2DE9F0473A
:102BD00015460A46984641191344DDF8209041F203
:102BE000180A0139013BC4F6000AFDF709FE10215D
:102BF0004FEA450CCAF81010002104220123402599
:102C000081F00700544603FA00F044F8102F10F04A
:102C1000720F18BF5446072901F101012560CAF857
:102C20000020EDD30CFB08F0D0B10021042240239A
:102C300019F80150002400BF84F00707564625FA12
:102C400007F746F8102FFF0718BF5646072C04F168
:102C500001043360CAF80020EED301318142E7D18C
:102C60001020CAF80000BDE8F0870000B0B541F2BE
:102C70001804C4F60004022564202561FEF7CCF890
:102C800032202560FEF7C8F80120002100F0A8F9E5
:102C900002204FF4E06100F0A3F9032041F230017B
:102CA00000F09EF90420002100F09AF9082040F27B
:102CB000022100F095F90920002100F091F90A2085
:102CC000002100F08DF90C20002100F089F90D2081
:102CD000002100F085F90F20002100F081F910207B
:102CE000002100F07DF91120072100F079F9122070
:102CF000002100F075F91320002100F071F9072080
:102D0000012100F06DF9C820FEF786F8102041F28D
:102D1000906100F065F9112040F2272100F060F980
:102D20003220FEF779F812209D2100F059F9322067
:102D3000FEF772F813204FF4D05100F051F929201A
:102D40001D2100F04DF92B200D2100F049F9322012
:102D5000FEF762F82020002100F042F92120002136
:102D600000F03EF93020002100F03AF9312040F225
:102D7000076100F035F9322040F2053100F030F9FA
:102D80003520002100F02CF9362041F2046100F0DA
:102D900027F937204FF4017100F022F93820012182
:102DA00000F01EF9392040F2077100F019F93C20BB
:102DB000002100F015F93D200F2100F011F95020FD
:102DC000002100F00DF95120EF2100F009F9522007
:102DD000002100F005F9532040F23F1100F000F906
:102DE00060204FF41C5100F0FBF86120012100F03D
:102DF000F7F86A20002100F0F3F88020002100F0AD
:102E0000EFF88120002100F0EBF88220002100F093
:102E1000E7F88320002100F0E3F88420002100F08F
:102E2000DFF88520002100F0DBF89020102100F071
:102E3000D7F892204FF4C06100F0D2F8072040F29A
:102E4000331100F0CDF80A20BDE8B040FDF7E4BF33
:102E50002DE9F04F89B092F800C00291BCF1000F4B
:102E6000019000F0B980139E43F2A81E4FF6FE7940
:102E70001C460020C0F6020E2327C0F2010910E014
:102E8000049A43F2A81E0120C0F6020E232712F86E
:102E900000C01118039ABCF1000F10440A4600F05C
:102EA0009B8001464FFA8CF0002801980391C9B22B
:102EB00000EBC103049237D4ACF12000C0B2029AF7
:102EC00000019FB24FF0000A079007E0089A0AF14C
:102ED000010ABAF1100F02F10102D1D0079843F2B2
:102EE00094615044C0F6020111F8008095B24FF091
:102EF000000B089210E000BF0028129A07EB0B00AD
:102F0000294648BF2246FDF7E7FC0BF1010BBBF158
:102F1000080F4FEA4808D9D04FFA88F00028EBD4C0
:102F2000002EF2D0E8E700BF029D4FF0000C0DE04C
:102F3000DDF814C0049A0CF1010C43F2A81EBCF198
:102F4000270FC0F6020E4FF0230743D00CFB07F00B
:102F50001EF800001178CDF814C08842E8D10CFBAF
:102F600007E0527841789142E2D103304FF00008F7
:102F700006900EE0079D18F0010005446FF0070071
:102F800008BF0820089B08F10108B8F1200F03448E
:102F9000CED006981FFA83FB10F808700795ADB2E3
:102FA0004FF0000A08930FE00028129A0BEB0A007A
:102FB000294648BF2246FDF78FFC0AF1010ABAF103
:102FC000080F09EA4707D5D03806EDD4002EF4D013
:102FD000EAE700BF02205AE709B0BDE8F08F000021
:102FE00070B541F22802C4F60002102313600023DA
:102FF0004FF0040E0124A2F1100C402583F00706C7
:1030000004FA06F616F0700F6646C2F800E008BF34
:103010001646072B03F10103356042F810ECEDD39F
:1030200000230425402400BF072B03F10103156092
:10303000146042F8105CF7D3C0B20023042440258A
:1030400083F0070620FA06F6F6076646146008BF06
:103050001646072B03F10103356042F8104CEFD3FD
:10306000102042F8100C1060002004230124402599
:1030700080F0070604FA06F616F0720F6646136033
:1030800008BF1646072800F10100356042F8103CE1
:10309000EED3C1F3072000230424402583F0070664
:1030A00020FA06F6F6076646146008BF1646072B98
:1030B00003F10103356042F8104CEFD3C8B2002190
:1030C0000423402581F0070620FA06F6F607664637
:1030D000136008BF1646072901F10101356042F867
:1030E000103CEFD3102042F8100C70BD10B540F624
:1030F0000044C4F6000420464FF480610122FDF72D
:1031000075FF20464FF400610122BDE81040FDF735
:103110006DBF00002DE9F04381B015460A4699467F
:1031200041191344DDF8208041F218040139013BB4
:10313000C4F60004FDF764FB102020610020042188
:103140000122402380F00707264602FA07F746F8D7
:10315000101F17F0720F18BF2646072800F1010054
:1031600033602160EED309FB05FCBCF1000F2FD0CA
:10317000C8F307215FFA88F24FF0000E04254023C0
:10318000002700BF87F00700264621FA00F046F826
:10319000105FC00718BF2646072F07F101073360ED
:1031A0002560EFD3002700BF87F00700264622FAEC
:1031B00000F046F8105FC00718BF2646072F07F13A
:1031C000010733602560EFD30EF1010EE645D7D13C
:1031D0001020206001B0BDE8F0830000F0B541F29E
:1031E0002807C4F6000710233B6000234FF0040CAF
:1031F0000124A7F1100E402583F0070604FA06F615
:1032000016F0700F7646C7F800C008BF3E46072B81
:1032100003F10103356047F810CCEDD300230425FA
:10322000402400BF072B03F101033D603C6047F8D9
:10323000105CF7D300230425402400BF022B3A463C
:103240003D6008BF7246072B03F10103146047F885
:10325000105CF3D31022002304244FF0010C40250E
:1032600047F8102C3A6000BF83F007020CFA02F214
:1032700012F0720F72463C6008BF3A46072B03F10A
:103280000103156047F8104CEED34FEA102C0023D1
:103290000424402583F007022CFA02F2D20772467A
:1032A0003C6008BF3A46072B03F10103156047F85D
:1032B000104CEFD3C0B200230424402583F0070252
:1032C00020FA02F2D20772463C6008BF3A46072B4A
:1032D00003F10103156047F8104CEFD3102047F8B5
:1032E000100C3860002004230124402580F00702E0
:1032F00004FA02F212F0700F72463B6008BF3A46C1
:10330000072800F10100156047F8103CEED30020BB
:1033100004234025072800F101003B603D6047F889
:10332000103CF7D3002004230124402580F007023D
:1033300004FA02F212F0210F72463B6008BF3A46CF
:10334000072800F10100156047F8103CEED310206B
:1033500047F8100C3860002004230124402500BFEA
:1033600080F0070204FA02F212F0720F72463B601C
:1033700008BF3A46072800F10100156047F8103CE5
:10338000EED3080A00230424402500BF83F007027F
:1033900020FA02F2D20772463C6008BF3A46072B79
:1033A00003F10103156047F8104CEFD3C8B20021B8
:1033B0000423402581F0070220FA02F2D207724668
:1033C0003B6008BF3A46072901F10101156047F843
:1033D000103CEFD3102047F8100CF0BD80B582B040
:1033E00041F24800C4F202000168002241F00401E9
:1033F0000160016801F0040101910199016841F047
:10340000010101600068002100F0010000900098B7
:103410000B20FDF76FFE0B20FDF75AFE0C2000215C
:103420000022FDF767FE0C2002B0BDE88040FDF7EA
:103430004FBE00002DE9F04786B0002741F24C0056
:103440000597CDE90377CDE90177C4F20200016861
:1034500041F2000541F0100101600168C4F6000569
:1034600001F01001009100990168002241F0200153
:103470000160016801F0200100910099016841F0AC
:1034800001010160016801F00101009100990168EA
:1034900041F004010160016801F00401009100990C
:1034A000016841F00801016000684E2100F0080049
:1034B000009000982846FDF799FD2846102101222A
:1034C0004FF0100A0124FDF791FDA5F580684046F4
:1034D0004FF4406100224FF44069FDF787FD44201E
:1034E00001A991C1032001AE049028463146FDF7A1
:1034F000A7FC0A2001A991C1284631460497FDF78F
:103500009FFC0220049028463146CDE901A4039493
:10351000FDF796FC2020CDE90107284631460397A8
:10352000FDF78EFC7020CDE901074FF09040314649
:103530000394FDF785FC40463146CDE90194CDE981
:103540000377FDF77DFC06B0BDE8F08780B540F25B
:10355000F01043F60001C2F20000C4F201010023A2
:103560004FF00C0C4FF4E13280E80E00C0E9033359
:10357000C0E905C3C0E90733C0E90933FEF770FFAE
:10358000002818BFFDF776FA40F2F010C2F20000F2
:103590000021FEF7BDFC002818BFFDF76BFA40F2D2
:1035A000F010C2F200000021FEF768FC002818BFEE
:1035B000FDF760FA40F2F010C2F20000FEF73EFCA8
:1035C000002808BF80BDBDE88040FDF753BA000069
:1035D000FEE70000FEE700007047000070470000B3
:1035E000FDF710BD4EF68850CEF20000016841F4A0
:1035F0007001016070470000816A0A070CD4CA0795
:1036000015D18A071ED44A0727D4CA0630D48A06A1
:1036100039D44A0642D457E00268D0F838C053681B
:1036200023F4004343EA0C035360CA07E9D002685D
:10363000D0F82CC0536823F4003343EA0C035360E2
:103640008A07E0D50268D0F830C0536823F480338D
:1036500043EA0C0353604A07D7D50268D0F834C058
:10366000536823F4802343EA0C035360CA06CED583
:103670000268D0F83CC0936823F4805343EA0C03FB
:1036800093608A06C5D50268D0F840C0936823F4D9
:10369000005343EA0C0393604A0615D5D0F800C0E6
:1036A000436CDCF80420B3F5801F22F4801242EA58
:1036B0000302CCF8042007D1DCF80420836C22F448
:1036C000C0021A43CCF80420090658BF70470168AD
:1036D000C06C4A6822F40022104348607047000022
:1036E000B0B582B004460020C4F89000FDF784FC19
:1036F00021680546096809071AD56FF07E4C2046F7
:103700004FF4001100222B46CDF800C000F064FAFF
:1037100070B100BF206850E8000F216820F08000E1
:1037200041E80002002AF5D103202021882230E060
:1037300020680068400723D56FF07E4C20464FF488
:10374000800100222B46CDF800C000F045FAB8B148
:10375000206850E8000F216820F4907041E80002D2
:10376000002AF5D1206850E8020F216820F00100FE
:1037700041E80202002AF5D1032020218C2208E032
:103780002020C4F88800C4F88C000021702200209A
:10379000E166A150002184F8841002B0B0BD0000A1
:1037A000806A0021A0F85E10A0F85610FEF786BCD3
:1037B000806A0368D0F88820D0F88CC09B681B060C
:1037C0001BD5212A19D10022A0F85620026852E800
:1037D000002F036822F0C00243E800210029F5D140
:1037E000016851E8021F026821F4000142E8021357
:1037F000002BF5D12021C0F888100168896849069E
:1038000032D5BCF1220F2FD10021A0F85E1000BFED
:10381000016851E8001F026821F4907142E800132A
:10382000002BF5D14FF6FE7CCEF6FF7C026852E805
:10383000022F036802EA0C0243E802210029F5D1B5
:10384000C16E01290AD100BF016851E8001F02685A
:1038500021F0100142E80013002BF5D12021C0F81F
:103860008C100021C1664167D0F8901041F0100122
:10387000C0F89010FEF722BC0168806A09688906CA
:1038800030D40021A0F85E10016851E8001F0268E2
:1038900021F4807142E80013002BF5D1016851E852
:1038A000021F026821F0010142E80213002BF5D14A
:1038B000016851E8021F026821F0400142E802134A
:1038C000002BF5D12021C0F88C10C16E012909D13F
:1038D000016851E8001F026821F0100142E800135E
:1038E000002BF5D100210167C16E012918BFFEF739
:1038F000F3BEB0F85C10FEF7BDBA0000806A01218B
:103900000167C16E012918BFFEF7E8BEB0F85C1070
:103910004908FEF7AFBA0000F0B581B0044604F1E3
:1039200008064ECE0068194341EA0603E1690668BD
:1039300046F6F315CCF6FF752E4033430B43036078
:1039400043684FF2FF4523F440531A43426048F264
:103950000002A369C4F2000290421CBF266A3343EE
:103960008668C1F2FF152E4033438360C36A666ADE
:1039700023F00F033343C36244F6FF73C4F2000322
:1039800098424FF0100318DC44F20046C4F20006DF
:10399000B04227D044F60006C4F20006B0422FD051
:1039A00044F60046C4F20006B0423ED141F288031C
:1039B000C4F202031B689B092FE045F20006C4F223
:1039C0000006B04215D0904221D043F60006C4F262
:1039D0000106B04229D141F28803C4F202031B68F8
:1039E00079A61EE041F28803C4F202031B689B081B
:1039F00013E041F28803C4F202031B681B0A0CE0C7
:103A000041F28803C4F202031B681B0905E041F27E
:103A10008803C4F202031B689B0A43F27466C0F673
:103A2000020603F0030356F82330904242F20040AE
:103A3000C0F2F40013D0B1F5004F1ED1082B00F2F4
:103A400064800027DFE803F00569736171616161DB
:103A5000B500FDF72DFF002840F06A809DE0082B9F
:103A60004ED80027DFE803F0054C1E4C184C4C4C98
:103A70001C00FDF71DFFB8B98FE0082B49D80027BF
:103A8000DFE803F0054F7447724747479C00FDF796
:103A90000FFF00286BD180E0FDF736FF20B97CE0F6
:103AA0004FF40040002878D0616A43F29012C0F6CB
:103AB000020232F811206568B0FBF2F305EB450114
:103AC0008B424FF001016BD32E03B34268D8002123
:103AD0000023FCF79DFB090241EA1061000210EB94
:103AE000550041F100012A460023FCF791FB4FF6F7
:103AF0000052A0F54071C0F20F0291424BD34EE04C
:103B0000002001270028CFD147E00020012778B905
:103B100043E00020012750BB3FE0FDF7DFFE38B94E
:103B20003BE0FDF7DBFE10BB37E0FDF7EDFEA0B399
:103B3000616A43F29012C0F6020232F81110626814
:103B4000B0FBF1F0510801EB4000B0FBF2F04FF692
:103B5000EF72A0F11001914221D84FF6F0710140AF
:103B6000C0F34200084416E0FDF7CEFEA8B1616A3A
:103B700043F29012C0F6020232F811106268B0FBF4
:103B8000F1F000EB5200B0FBF2F04FF6EF72A0F153
:103B90001001914203D82168C860394600E0012134
:103BA0004FF001100022A06662670846A26701B0CC
:103BB000F0BD4FF400400028BAD1EEE74FF40040CA
:103BC0000028D4D1E9E700BF010000000400000094
:103BD00002000000080000002DE9F04381B0044617
:103BE0000068C0690840401AB0FA80F0400990426D
:103BF00057D1DDF8208015460E46994608F1010799
:103C000009E000BF2068C0693040801BB0FA80F036
:103C10004009A84245D1002FF4D0FDF7EDF9014647
:103C2000B8F1000F4FF003003CD0A1EB0901414572
:103C300038D8206801684907E4D5402EE2D0802EAC
:103C4000E0D0C169090730D4C1690905DAD54FF45C
:103C500000610162206850E8000F216820F4907034
:103C600041E80002002AF5D14FF6FE70CEF6FF7053
:103C7000216851E8021F2268014042E80213002B2C
:103C8000F6D1E06E012809D1206850E8000F2168C4
:103C900020F0100041E80002002AF5D10320202185
:103CA0002CE0002001B0BDE8F0830821016200BFD4
:103CB000206850E8000F216820F4907041E800026D
:103CC000002AF5D14FF6FE70CEF6FF70216851E85C
:103CD000021F2268014042E80213002BF6D1E06E79
:103CE000012809D1206850E8000F216820F0100059
:103CF00041E80002002AF5D1012008212022C4F861
:103D00008C200022E2666267C4F8901084F8842058
:103D100001B0BDE8F08300002DE9F04703AF82B0A9
:103D200040F2F010C2F200000068C169C90640F11B
:103D30009A801021016240F2F010C2F20000FEF7FA
:103D400035F940F23010C2F20000006840F2300A4B
:103D50004068C2F2000AC14340F23104CDB28AF891
:103D60000010C2F2000440F28821C6B2C2F2000183
:103D700020462A46FCF77DFA40F28428F72EC2F24C
:103D8000000850D8D8F8000002284CDC206843F224
:103D90004151C4F23511884245D160194CF2D80125
:103DA0000438C0F605010422FCF7A5FAD8BB4CF292
:103DB000D801C0F605012046FCF77FFA211D884294
:103DC0002FD0451AE81D20F00700E946ADEB0000B2
:103DD00085462A46FCF783FA0B2D13D1D8F800103C
:103DE00043F6944242F615430139C0F60202C0F28E
:103DF000010301FB03210B2201F109052946FCF710
:103E00007AFAD8B34CF2D30040F28821C0F605000C
:103E1000C2F2000100F04CF91DA000F0DBFDCD4620
:103E200001E0FEF7E3FC9AF80000012810D1D8F871
:103E3000000068B140F22C01C2F20001207809684C
:103E4000814205D140F22800C2F200000121016048
:103E500040F2F01040F28821C2F20000C2F20001EC
:103E6000FF22FEF7B7FB40F2F010C2F20000FEF7AF
:103E700027F9A7F10C04A546BDE8F0874CF2D30062
:103E8000C0F60500294600F013F9FEF719FDC6E754
:103E90004461746120466F726D6174204572726F67
:103EA00072210000FEE70000B0B582B040F2F015CC
:103EB000C2F200050446019001A9284601224FF4F0
:103EC0007A73FEF70DFC2868C1694906FCD52046C7
:103ED00002B0B0BD94B0FDF7A3F806AC204638217F
:103EE000FCF7E0F9002500200595CDE90355CDE963
:103EF0000155FDF73BF9012006904FF48030079003
:103F00000220032655210D90CDE90E60CDE9101059
:103F1000CDE912002046FDF739FD20B1EFF3108006
:103F200072B600BFFEE70F20CDE9010601A804210B
:103F3000CDE903550595FDF731FB20B1EFF3108076
:103F400072B600BFFEE7FFF775FAFFF747FAFFF713
:103F5000FDFAFEF78BFE1F2700200021F0224FF410
:103F6000A0730097FFF7D6F840F2F010C2F20000FD
:103F700001680A6842F010020A6040F28821C2F229
:103F80000001FF22FEF726FBFEF730FC40F28427FB
:103F900043F6944942F6154A23A4C2F2000726A527
:103FA00029A6C0F60209C0F2010A0FF2AC0800BF50
:103FB000FEF7D6FD032827D002281BD00128F7D111
:103FC000304600F007FD38680130C11700EB9171F1
:103FD00021F00301401A3860FEF708FC3868002819
:103FE000E6D0013800FB0A9000F10901404600F0DC
:103FF0005FF8DDE7284600F0EDFC38680028D7D0F0
:10400000FEF730FCD4E700BF204600F0E3FC386840
:104010000130C11700EB917121F00301401A3860A3
:10402000C6D0FEF79FFCC3E74B455933205052459D
:104030005353210D000000004B455932205052458A
:104040005353210D000000004B455931205052457B
:104050005353210D00000000413535412573413592
:1040600041350D0A0000000040F28420C2F2000039
:104070000068032888BF7047B0B5C0004FF0011139
:1040800040F60044C14040F20112C4F6000422FA96
:1040900000F5CAB220464FF48061FCF7A7FFEAB2F0
:1040A00020464FF40061BDE8B040FCF79FBF000020
:1040B0000FB4054B10B503A9044A029800F0EEF8BE
:1040C00010BC5DF814FB0000A93E000800000020B1
:1040D0000FB4084B10B504A902AA039800F0DEF84B
:1040E000044602A9002000F070FC204610BC5DF8D8
:1040F00014FB0000CB49000802E008C8121F08C1E9
:10410000002AFAD170477047002001E001C1121F58
:10411000002AFBD1704700002DE9FF5F82B000212B
:10412000DDE90430020DDDF840B0034318D044F659
:104130001050A2F2FF3242431514119801281FD0EB
:10414000A5EB0B00401C5FEA000A4FF000064E4F43
:10415000DFF83891B046504615D5CAF1000413E097
:10416000119801244AA3012801D16FEA0B0102989A
:10417000119AC0E90031C0E9024206B0BDE8F09FE3
:10418000CBF10000DFE704460021404A491842EB2A
:104190000450CDE9001012E0E00707D032463B465C
:1041A00040464946FCF792F98046894632463B46EE
:1041B00010461946FCF78AF906460F466410002C93
:1041C000EAD1DDE90401DDE90023BAF1000F06DAE6
:1041D000FCF77CF942464B46FCF778F905E0FCF722
:1041E000E7F942464B46FCF7E3F904460E46002247
:1041F000284BFCF765FA03D84FF0FF30014607E083
:104200000022254B20463146FCF7B9F8FCF73FFA6F
:10421000102409E0002C0ADB0A220023FBF7F8FF38
:10422000039B30321A55641E50EA0102F2D1641C1D
:10423000039AC4F111031444119A012A03D00122F4
:1042400008430DD10AE0084304D000204FF0110BC1
:10425000119072E7A3EB0B056D1E0DE05B4504DDCD
:104260004FF0000205F1010504E003DA4FF000020F
:10427000A5F10105002AECD002981199C0E902319C
:10428000C0E9004579E70000000014400000F03F5D
:10429000300000000000F0430000E03F2DE9FF4F38
:1042A00095B09B468946064600250FE2252877D122
:1042B00000242746F84A0121059400E0044316F83B
:1042C000013F203B01FA03F01042F7D130782A2851
:1042D00011D06FF02F033078A0F13002092A16D8E0
:1042E000059A44F0020402EB820203EB42021044FE
:1042F000761C0590EFE759F8042B0592002A03DAA3
:10430000504244F40054059044F00204761C307886
:104310002E2816D116F8010F44F004042A280DD0D7
:104320006FF02F023078A0F13003092B09D807EB8A
:10433000870302EB4303C718761CF3E759F8047BA5
:10434000761C30786C280FD006DC4C2817D06828F3
:104350000DD06A2814D104E0742810D07A280FD127
:104360000DE044F400140AE044F4801401E044F445
:1043700040147278824202D104F58014761C761CB7
:10438000307866280BD013DC582877D009DC002859
:1043900075D04528F6D04628F4D047281AD19DE19B
:1043A00018E0632835D0642879D0652812D195E1CA
:1043B000702873D008DC6728F1D069286FD06E2888
:1043C0000DD06F2806D1B5E073282CD0752875D094
:1043D000782874D05A46179990476D1C75E1C4F33C
:1043E0000250022809D003280DD0D9F80010042863
:1043F0000DD00D6009F1040967E1D9F80010EA1742
:10440000C1E90052F6E7D9F800100D80F2E70D700F
:10441000F0E719F8041B8DF8001000208DF801005A
:10442000EA46012003E059F804AB4FF0FF30610782
:104430004FF0000102D40DE008F101018846B942B5
:104440000FDA8045F8DB1AF808100029F4D108E0EB
:1044500008F1010188468142FADB1AF808100029A8
:10446000F6D105985B46A0EB080721463846179A17
:1044700000F094FA284400EB080507E04DE029E13C
:104480000DE01AF8010B5A4617999047B8F1010848
:10449000F7D25B4621463846179A13E142E00A22DA
:1044A0000092C4F302524FF0000A022A08D059F8D1
:1044B00004CB032A4FEAEC710AD00DE029E02AE090
:1044C00009F1070121F00702F2E802C1914609E073
:1044D0000FFA8CFC4FEAEC71042A03D14FFA8CFCE2
:1044E0004FEAEC71002907DA0A460021DCF1000CE2
:1044F00061EB02012D2202E0220504D52B228DF86A
:104500000420012203E0E20701D02022F7E79046D1
:1045100059E00A2102E010220DE010214FF0000ABC
:1045200000910BE010224FF0000A44F00404082729
:10453000009203E008224FF0000A0092C4F30252F6
:10454000022A05D059F804CB0021032A08D009E03B
:1045500009F1070121F00702F2E802C1914605E0E6
:104560001FFA8CFC042A01D10CF0FF0C4FF000085C
:10457000220728D5702806D0009B83F0100353EA49
:104580000A0305D00EE040228DF80420012208E045
:104590005CEA010206D030228DF804208DF8050077
:1045A00002229046009B83F0080353EA0A030AD1D3
:1045B0005CEA010201D1620705D530228DF80420A2
:1045C0004FF001087F1E582804D034A003900EA895
:1045D00002900DE036A0F9E753466046009AFBF7DB
:1045E00017FE84460398825C0298401E0290027077
:1045F0005CEA0100F0D1029806A9081A00F1200A2D
:10460000600702D524F4803400E00127574502DD1D
:10461000A7EB0A0000E0002000EB0A0100900598DB
:104620004144401A0590E00306D45B462146179AA0
:10463000059800F0B3F90544002706E001A85A46A2
:10464000C05D179990476D1C7F1C4745F6DBE00362
:104650000CD55B462146179A059800F09FF9054452
:1046600004E030205A46179990476D1C0099481E67
:1046700000900029F5DC08E0029802995A4600787B
:10468000491C0291179990476D1CBAF10001AAF1DB
:10469000010AF1DC65E10000092801003031323304
:1046A000343536373839616263646566000000006E
:1046B0003031323334353637383941424344454658
:1046C0000000000000F058F90544761C30780028FE
:1046D0007FF4ECAD19B02846BDE8F08F620700D436
:1046E000062709F1070222F0070CFCE80223E14645
:1046F00003F000485FEA080C02D00FF2702C0DE0C6
:104700005FEA045C02D50FF2682C07E05FEAC47C24
:1047100002D00FF2602C01E0AFF2700C4FF0FF38C6
:1047200023F00043CDF850C065280CD006DC4528A6
:1047300009D046281DD047283DD13DE0662818D035
:1047400067287ED138E00021112F01DB112000E025
:10475000781CCDE9000106A90EA8FFF7DDFCDDE914
:104760000F010E9A03910021009207F1010A0491B2
:104770004DE04FF000400097CDE9011006A90EA8CA
:10478000FFF7CAFCDDE90F0203920E9B119900228C
:10479000DDF80CA00093049211B9791C00EB010A1A
:1047A000B7EB0A0004D4C0F1FF3007F1010A04900E
:1047B000AAEB0700019044E0012F00DA0127002155
:1047C000112F01DD112000E03846CDE9000106A9D6
:1047D0000EA8FFF7A1FCDDE90F010E9A039100215D
:1047E00004910092BA4621070CD40399514500DA8E
:1047F0008A46BAF1010F05DD009AAAF10101515C68
:10480000302908D0B84202DA10F1040F06DA01218B
:10481000CDE9011015E0AAF10101E9E7002805DC66
:10482000049901440491AAEB000102E0411C5145A6
:1048300000DD8A460499401A401C01904FF0004068
:104840000290200704D40198504501DBCDF8048084
:1048500000208DF84F0002980DF14F07B0F1004F86
:1048600025D02B200E9002984FF0020800280CDA79
:10487000404202902D200E9007E00A210298FBF79B
:1048800049FD3031029007F8011DB8F10001A8F18F
:104890000108F2DC02980028EFD1791E0E9808700A
:1048A000307800F0200040F0450007F8020D12A813
:1048B000C01B00F107081498007800B1012000EB3C
:1048C0000A01019801EBE07105984144401A401E2D
:1048D0000590E00306D45B462146179A059800F040
:1048E0005DF805441498007818B15A461799904716
:1048F0006D1CE00324D55B462146179A059800F00D
:104900004DF805441CE00498002807DBDDE90301AD
:10491000884203DD0098405C179901E01799302028
:104920005A469047049805F10105401C04900198EF
:10493000401E019004D12E205A46179990476D1CB5
:10494000BAF10001AAF1010ADDDC05E017F8010B5C
:104950005A46179990476D1CB8F10001A8F101085B
:10496000F4DC5B462146179A0598ABE62D00000063
:104970002B000000200000002DE9F0410446002536
:104980001E461746880404D405E039462020B04767
:104990006D1C641EF9D52846BDE8F0812DE9F04173
:1049A000044600251E469046C80301D5302700E086
:1049B0002027880404D505E041463846B0476D1CE1
:1049C000641EF9D52846BDE8F0810A68531C0B60C7
:1049D0001070704710B5044601E0FFF765FA14F84F
:1049E000010B04490028F8D1BDE810400A20FFF768
:1049F0005BBA000000000020FFFFFFFFFFFFFFFF8A
:104A0000FFFFFFFFFFFFFFFFFFFFFFFFFFFFFFFFB6
:104A1000FFFFFFFFFFFFFFFFFFFFFFFFFFFFFFFFA6
:104A2000FFFFFFFFFFFFFFFFFFFFFFFFFFFFFFFF96
:104A3000FFFFFFFFFFFFFFFFFFFFFFFFFFFFFFFF86
:10531000FFFFFFFFFFFFD69A6B4D7BCFEF5DFFFFD7
:10532000FFFFFFFFFFFFFFFFFFFFFFFFFFFFFFFF8D
:10533000FFFFFFFFFFFFFFFFFFFFFFFFFFFFFFFF7D
:10534000FFFFFFFFFFFFFFFFFFFFFFFFFFFFFFFF6D
:10535000FFFFFFFFFFFFFFFFFFFFFFFFFFFFFFFF5D
:10536000FFFFFFFFFFFFFFFFFFFFFFFFFFFFFFFF4D
:10537000FFFFFFFFFFFFFFFFFFFFFFFFFFFFFFFF3D
:10538000FFFFFFFFFFFFFFFFFFFFFFFFF7BE5AEB2F
:10539000000000008C51FFFFFFFFFFFFFFFFFFFF3A
:1053A000FFFFFFFFFFFFFFFFFFFFFFFFFFFFFFFF0D
:1053B000FFFFFFFFFFFFFFFFFFFFFFFFFFFFFFFFFD
:1053C000FFFFFFFFFFFFFFFFFFFFFFFFFFFFFFFFED
:1053D000FFFFFFFFFFFFFFFFFFFFFFFFFFFFFFFFDD
:1053E000FFFFFFFFFFFFFFFFFFFFFFFFFFFFFFFFCD
:1053F000FFFFFFFFFFFFFFFFFFFFFFFFFFFFFFFFBD
:10540000FFFFFFFFCE7918C30000000031A6E73C84
:10541000FFFFFFFFFFFFFFFFFFFFFFFFFFFFFFFF9C
:10542000FFFFFFFFFFFFFFFFFFFFFFFFFFFFFFFF8C
:10543000FFFFFFFFFFFFFFFFFFFFFFFFFFFFFFFF7C
:10544000FFFFFFFFFFFFFFFFFFFFFFFFFFFFFFFF6C
:10545000FFFFFFFFFFFFFFFFFFFFFFFFFFFFFFFF5C
:10546000FFFFFFFFFFFFFFFFFFFFFFFFFFFFFFFF4C
:10547000FFFFFFFFFFFFFFFFFFFFFFFF8430000084
:10548000000000000841A534FFFFFFFFFFFFFFFF02
:10549000FFFFFFFFFFFFFFFFFFFFFFFFFFFFFFFF1C
:1054A000FFFFFFFFFFFFFFFFFFFFFFFFFFFFFFFF0C
:1054B000FFFFFFFFFFFFFFFFFFFFFFFFFFFFFFFFFC
:1054C000FFFFFFFFFFFFFFFFFFFFFFFFFFFFFFFFEC
:1054D000FFFFFFFFFFFFFFFFFFFFFFFFFFFFFFFFDC
:1054E000FFFFFFFFFFFFFFFFFFFFFFFFFFFFFFFFCC
:1054F000FFFFEF5D39C70000000000000000528A86
:10550000F79EFFFFFFFFFFFFFFFFFFFFFFFFFFFF14
:10551000FFFFFFFFFFFFFFFFFFFFFFFFFFFFFFFF9B
:10552000FFFFFFFFFFFFFFFFFFFFFFFFFFFFFFFF8B
:10553000FFFFFFFFFFFFFFFFFFFFFFFFFFFFFFFF7B
:10554000FFFFFFFFFFFFFFFFFFFFFFFFFFFFFFFF6B
:10555000FFFFFFFFFFFFFFFFFFFFFFFFFFFFFFFF5B
:10556000FFFFFFFFFFFFFFFFFFFFAD7508410000DA
:1055700000000000000010A2C618FFFFFFFFFFFFA1
:10558000FFFFFFFFFFFFFFFFFFFFFFFFFFFFFFFF2B
:10559000FFFFFFFFFFFFFFFFFFFFFFFFFFFFFFFF1B
:1055A000FFFFFFFFFFFFFFFFFFFFFFFFFFFFFFFF0B
:1055B000FFFFFFFFFFFFFFFFFFFFFFFFFFFFFFFFFB
:1055C000FFFFFFFFFFFFFFFFFFFFFFFFFFFFFFFFEB
:1055D000FFFFFFFFFFFFFFFFFFFFFFFFFFFFFFFFDB
:1055E000FFDF630C000018C3000000000000000093
:1055F0006B6DFFFFFFFFFFFFFFFFFFFFFFFFFFFFE1
:10560000FFFFFFFFFFFFFFFFFFFFFFFFFFFFFFFFAA
:10561000FFFFFFFFFFFFFFFFFFFFFFFFFFFFFFFF9A
:10562000FFFFFFFFFFFFFFFFFFFFFFFFFFFFFFFF8A
:10563000FFFFFFFFFFFFFFFFFFFFFFFFFFFFFFFF7A
:10564000FFFFFFFFFFFFFFFFFFFFFFFFFFFFFFFF6A
:10565000FFFFFFFFFFFFFFFFD6BA18E318C394B2A6
:1056600018E30000000000002124D6BAFFFFFFFF6E
:10567000FFFFFFFFFFFFFFFFFFFFFFFFFFFFFFFF3A
:10568000FFFFFFFFFFFFFFFFFFFFFFFFFFFFFFFF2A
:10569000FFFFFFFFFFFFFFFFFFFFFFFFFFFFFFFF1A
:1056A000FFFFFFFFFFFFFFFFFFFFFFFFFFFFFFFF0A
:1056B000FFFFFFFFFFFFFFFFFFFFFFFFFFFFFFFFFA
:1056C000FFFFFFFFFFFFFFFFFFFFFFFFFFFFFFFFEA
:1056D0008C710000528AEF7D5AEB00000000000040
:1056E00000008C71FFFFFFFFFFFFFFFFFFFFFFFFC9
:1056F000FFFFFFFFFFFFFFFFFFFFFFFFFFFFFFFFBA
:10570000FFFFFFFFFFFFFFFFFFFFFFFFFFFFFFFFA9
:10571000FFFFFFFFFFFFFFFFFFFFFFFFFFFFFFFF99
:10572000FFFFFFFFFFFFFFFFFFFFFFFFFFFFFFFF89
:10573000FFFFFFFFFFFFFFFFFFFFFFFFFFFFFFFF79
:10574000FFFFFFFFFFFFEF7D420800009CF3FFFF1C
:10575000B596086100000000000039E7EF5DFFFF2B
:10576000FFFFFFFFFFFFFFFFFFFFFFFFFFFFFFFF49
:10577000FFFFFFFFFFFFFFFFFFFFFFFFFFFFFFFF39
:10578000FFFFFFFFFFFFFFFFFFFFFFFFFFFFFFFF29
:10579000FFFFFFFFFFFFFFFFFFFFFFFFFFFFFFFF19
:1057A000FFFFFFFFFFFFFFFFFFFFFFFFFFFFFFFF09
:1057B000FFFFFFFFFFFFFFFFFFFFFFFFFFFFBDD763
:1057C00008612945DEFBFFFFEF7D42080000000075
:1057D00000000841AD55FFFFFFFFFFFFFFFFFFFF88
:1057E000FFFFFFFFFFFFFFFFFFFFFFFFFFFFFFFFC9
:1057F000FFFFFFFFFFFFFFFFFFFFFFFFFFFFFFFFB9
:10580000FFFFFFFFFFFFFFFFFFFFFFFFFFFFFFFFA8
:10581000FFFFFFFFFFFFFFFFFFFFFFFFFFFFFFFF98
:10582000FFFFFFFFFFFFFFFFFFFFFFFFFFFFFFFF88
:10583000FFFFFFFFFFDF6B4D0000738EFFFFFFFFD9
:10584000FFFF9492002000000000000052AAF7BE63
:10585000FFFFFFFFFFFFFFFFFFFFFFFFFFFFFFFF58
:10586000FFFFFFFFFFFFFFFFFFFFFFFFFFFFFFFF48
:10587000FFFFFFFFFFFFFFFFFFFFFFFFFFFFFFFF38
:10588000FFFFFFFFFFFFFFFFFFFFFFFFFFFFFFFF28
:10589000FFFFFFFFFFFFFFFFFFFFFFFFFFFFFFFF18
:1058A000FFFFFFFFFFFFFFFFFFFFFFFFDEDB212406
:1058B0000861BDD7FFFFFFFFFFFFDEDB29450000CA
:1058C0000000000010A2C638FFFFFFFFFFFFFFFF30
:1058D000FFFFFFFFFFFFFFFFFFFFFFFFFFFFFFFFD8
:1058E000FFFFFFFFFFFFFFFFFFFFFFFFFFFFFFFFC8
:1058F000FFFFFFFFFFFFFFFFFFFFFFFFFFFFFFFFB8
:10590000FFFFFFFFFFFFFFFFFFFFFFFFFFFFFFFFA7
:10591000FFFFFFFFFFFFFFFFFFFFFFFFFFFFFFFF97
:10592000FFFFFFFF94B200004208EF7DFFFFFFFF83
:10593000FFFFFFFF738E000000000000000073AE49
:10594000FFFFFFFFFFFFFFFFFFFFFFFFFFFFFFFF67
:10595000FFFFFFFFFFFFFFFFFFFFFFFFFFFFFFFF57
:10596000FFFFFFFFFFFFFFFFFFFFFFFFFFFFFFFF47
:10597000FFFFFFFFFFFFFFFFFFFFFFFFFFFFFFFF37
:10598000FFFFFFFFFFFFFFFFFFFFFFFFFFFFFFFF27
:10599000FFFFFFFFFFFFFFFFFFFFF79E4A490000E9
:1059A0008C71FFFFFFFFFFFFFFFFFFFFC61810A274
:1059B0000000000000002945DEDBFFFFFFFFFFFFC6
:1059C000FFFFFFFFFFFFFFFFFFFFFFFFFFFFFFFFE7
:1059D000FFFFFFFFFFFFFFFFFFFFFFFFFFFFFFFFD7
:1059E000FFFFFFFFFFFFFFFFFFFFFFFFFFFFFFFFC7
:1059F000FFFFFFFFFFFFFFFFFFFFFFFFFFFFFFFFB7
:105A0000FFFFFFFFFFFFFFFFFFFFFFFFFFFFFFFFA6
:105A1000FFFFC618108218E3D69AFFFFFFFFFFFFB3
:105A2000FFFFFFFFF7BE52AA0000000000000020A9
:105A300094B2FFFFFFFFFFFFFFFFFFFFFFFFFFFF2E
:105A4000FFFFFFFFFFFFFFFFFFFFFFFFFFFFFFFF66
:105A5000FFFFFFFFFFFFFFFFFFFFFFFFFFFFFFFF56
:105A6000FFFFFFFFFFFFFFFFFFFFFFFFFFFFFFFF46
:105A7000FFFFFFFFFFFFFFFFFFFFFFFFFFFFFFFF36
:105A8000FFFFFFFFFFFFFFFFFFFF73AE00005AEBBA
:105A9000FFDFFFFFFFFFFFFFFFFFFFFFFFFFA5345B
:105AA00008410000000000004208EF7DFFFFFFFFFB
:105AB000FFFFFFFFFFFFFFFFFFFFFFFFFFFFFFFFF6
:105AC000FFFFFFFFFFFFFFFFFFFFFFFFFFFFFFFFE6
:105AD000FFFFFFFFFFFFFFFFFFFFFFFFFFFFFFFFD6
:105AE000FFFFFFFFFFFFFFFFFFFFFFFFFFFFFFFFC6
:105AF000FFFFFFFFFFFFFFFFFFFFFFFFFFFFFFFFB6
:105B0000E71C29650841AD75FFFFFFFFFFFFFFFFA1
:105B1000FFFFFFFFFFFFE73C39C700000000000068
:105B20000861B596FFFFFFFFFFFFFFFFFFFFFFFFCD
:105B3000FFFFFFFFFFFFFFFFFFFFFFFFFFFFFFFF75
:105B4000FFFFFFFFFFFFFFFFFFFFFFFFFFFFFFFF65
:105B5000FFFFFFFFFFFFFFFFFFFFFFFFFFFFFFFF55
:105B6000FFFFFFFFFFFFFFFFFFFFFFFFFFFFFFFF45
:105B7000FFFFFFFFFFFFFFFFA514002031A6E73C5A
:105B8000FFFFFFFFFFFFFFFFFFFFFFFFFFFFFFFF25
:105B90008C5100000000000000005AEBF7BEFFFF30
:105BA000FFFFFFFFFFFFFFFFFFFFFFFFFFFFFFFF05
:105BB000FFFFFFFFFFFFFFFFFFFFFFFFFFFFFFFFF5
:105BC000FFFFFFFFFFFFFFFFFFFFFFFFFFFFFFFFE5
:105BD000FFFFFFFFFFFFFFFFFFFFFFFFFFFFFFFFD5
:105BE000FFFFFFFFFFFFFFFFFFFFFFFFFFFFF7BE0E
:105BF000528A00007BEFFFFFFFFFFFFFFFFFFFFF69
:105C0000FFFFFFFFFFFFFFFFD6BA210400000000E7
:105C1000000018C3CE59FFFFFFFFFFFFFFFFFFFF8C
:105C2000FFFFFFFFFFFFFFFFFFFFFFFFFFFFFFFF84
:105C3000FFFFFFFFFFFFFFFFFFFFFFFFFFFFFFFF74
:105C4000FFFFFFFFFFFFFFFFFFFFFFFFFFFFFFFF64
:105C5000FFFFFFFFFFFFFFFFFFFFFFFFFFFFFFFF54
:105C6000FFFFFFFFFFFFCE5910A210A2C638FFFFB3
:105C7000FFFFFFFFFFFFFFFFFFFFFFFFFFFFFFFF34
:105C8000FFDF6B4D00000000000000007BCFFFFF36
:105C9000FFFFFFFFFFFFFFFFFFFFFFFFFFFFFFFF14
:105CA000FFFFFFFFFFFFFFFFFFFFFFFFFFFFFFFF04
:105CB000FFFFFFFFFFFFFFFFFFFFFFFFFFFFFFFFF4
:105CC000FFFFFFFFFFFFFFFFFFFFFFFFFFFFFFFFE4
:105CD000FFFFFFFFFFFFFFFFFFFFFFFFFFFF7BEF68
:105CE0000000528AF7BEFFFFFFFFFFFFFFFFFFFF2D
:105CF000FFFFFFFFFFFFFFFFFFFFBDF71082000068
:105D0000000000002965DEFBFFFFFFFFFFFFFFFF34
:105D1000FFFFFFFFFFFFFFFFFFFFFFFFFFFFFFFF93
:105D2000FFFFFFFFFFFFFFFFFFFFFFFFFFFFFFFF83
:105D3000FFFFFFFFFFFFFFFFFFFFFFFFFFFFFFFF73
:105D4000FFFFFFFFFFFFFFFFFFFFFFFFFFFFFFFF63
:105D5000FFFFFFFFE73C31A6000073AED69ACE7975
:105D6000CE79CE79CE79CE79CE79CE79CE79CE79FB
:105D7000D69AC61831A600000000000000209CD36F
:105D8000FFFFFFFFFFFFFFFFFFFFFFFFFFFFFFFF23
:105D9000FFFFFFFFFFFFFFFFFFFFFFFFFFFFFFFF13
:105DA000FFFFFFFFFFFFFFFFFFFFFFFFFFFFFFFF03
:105DB000FFFFFFFFFFFFFFFFFFFFFFFFFFFFFFFFF3
:105DC000FFFFFFFFFFFFFFFFFFFFFFFFAD55084194
:105DD0000861318639C731A631A631A631A631A670
:105DE00031A631A631A631A631A631A62124002044
:105DF0000000000000004228EF7DFFFFFFFFFFFFD3
:105E0000FFFFFFFFFFFFFFFFFFFFFFFFFFFFFFFFA2
:105E1000FFFFFFFFFFFFFFFFFFFFFFFFFFFFFFFF92
:105E2000FFFFFFFFFFFFFFFFFFFFFFFFFFFFFFFF82
:105E3000FFFFFFFFFFFFFFFFFFFFFFFFFFFFFFFF72
:105E4000FFFFF7BE5ACB00008C51DEFBDEDBDEDB52
:105E5000DEDBDEDBDEDBDEDBDEDBDEDBDEDBDEDB7A
:105E6000DEDBDEDBD69A4A49000000000000086154
:105E7000B5B6FFFFFFFFFFFFFFFFFFFFFFFFFFFFC5
:105E8000FFFFFFFFFFFFFFFFFFFFFFFFFFFFFFFF22
:105E9000FFFFFFFFFFFFFFFFFFFFFFFFFFFFFFFF12
:105EA000FFFFFFFFFFFFFFFFFFFFFFFFFFFFFFFF02
:105EB000FFFFFFFFFFFFFFFFFFFFCE7918C32104A5
:105EC000DEDBFFFFFFFFFFFFFFFFFFFFFFFFFFFF27
:105ED000FFFFFFFFFFFFFFFFFFFFFFFFFFFF9CF341
:105EE0000020000000000000630CFFDFFFFFFFFF49
:105EF000FFFFFFFFFFFFFFFFFFFFFFFFFFFFFFFFB2
:105F0000FFFFFFFFFFFFFFFFFFFFFFFFFFFFFFFFA1
:105F1000FFFFFFFFFFFFFFFFFFFFFFFFFFFFFFFF91
:105F2000FFFFFFFFFFFFFFFFFFFFFFFFFFFFFFFF81
:105F3000FFFF8C510000632CFFDFFFFFFFFFFFFF1F
:105F4000FFFFFFFFFFFFFFFFFFFFFFFFFFFFFFFF61
:105F5000FFFFFFFFFFFFE71C2965000000000000B6
:105F600018E3CE79FFFFFFFFFFFFFFFFFFFFFFFFFB
:105F7000FFFFFFFFFFFFFFFFFFFFFFFFFFFFFFFF31
:105F8000FFFFFFFFFFFFFFFFFFFFFFFFFFFFFFFF21
:105F9000FFFFFFFFFFFFFFFFFFFFFFFFFFFFFFFF11
:105FA000FFFFFFFFFFFFFFFFEF5D39E70841AD7522
:105FB000FFFFFFFFFFFFFFFFFFFFFFFFFFFFFFFFF1
:105FC000FFFFFFFFFFFFFFFFFFFFFFFFFFFFFFFFE1
:105FD0007BCF00000000000000008410FFFFFFFFE7
:105FE000FFFFFFFFFFFFFFFFFFFFFFFFFFFFFFFFC1
:105FF000FFFFFFFFFFFFFFFFFFFFFFFFFFFFFFFFB1
:10600000FFFFFFFFFFFFFFFFFFFFFFFFFFFFFFFFA0
:10601000FFFFFFFFFFFFFFFFFFFFFFFFFFFFFFFF90
:10602000B596084131A6EF5DFFFFFFFFFFFFFFFFC1
:10603000FFFFFFFFFFFFFFFFFFFFFFFFFFFFFFFF70
:10604000FFFFFFFFFFFFFFFFC63810A200000000A8
:1060500000003186E71CFFFFFFFFFFFFFFFFFFFF90
:10606000FFFFFFFFFFFFFFFFFFFFFFFFFFFFFFFF40
:10607000FFFFFFFFFFFFFFFFFFFFFFFFFFFFFFFF30
:10608000FFFFFFFFFFFFFFFFFFFFFFFFFFFFFFFF20
:10609000FFFFFFFFFFFFFFDF632C00007BEFFFFF31
:1060A000FFFFFFFFFFFFFFFFFFFFFFFFFFFFFFFF00
:1060B000FFFFFFFFFFFFFFFFFFFFFFFFFFFFFFFFF0
:1060C000F7BE52AA0000000000000020A514FFFF48
:1060D000FFFFFFFFFFFFFFFFFFFFFFFFFFFFFFFFD0
:1060E000FFFFFFFFFFFFFFFFFFFFFFFFFFFFFFFFC0
:1060F000FFFFFFFFFFFFFFFFFFFFFFFFFFFFFFFFB0
:10610000FFFFFFFFFFFFFFFFFFFFFFFFFFFFD6BA0D
:10611000210410A2C638FFFFFFFFFFFFFFFFFFFFB4
:10612000FFFFFFFFFFFFFFFFFFFFFFFFFFFFFFFF7F
:10613000FFFFFFFFFFFFFFFFFFFFA5340841000047
:10614000000000004A69F79EFFFFFFFFFFFFFFFF0F
:10615000FFFFFFFFFFFFFFFFFFFFFFFFFFFFFFFF4F
:10616000FFFFFFFFFFFFFFFFFFFFFFFFFFFFFFFF3F
:10617000FFFFFFFFFFFFFFFFFFFFFFFFFFFFFFFF2F
:10618000FFFFFFFFFFFF949200004A69F79EFFFFA9
:10619000FFFFFFFFFFFFFFFFFFFFFFFFFFFFFFFF0F
:1061A000FFFFFFFFFFFFFFFFFFFFFFFFFFFFFFFFFF
:1061B000FFFFE73C31A60000000000001082BDF7A1
:1061C000FFFFFFFFFFFFFFFFFFFFFFFFFFFFFFFFDF
:1061D000FFFFFFFFFFFFFFFFFFFFFFFFFFFFFFFFCF
:1061E000FFFFFFFFFFFFFFFFFFFFFFFFFFFFFFFFBF
:1061F000FFFFFFFFFFFFFFFFFFFFFFFFEF7D4228D5
:1062000000009CD3FFFFFFFFFFFFFFFFFFFFFFFF2B
:10621000FFFFFFFFFFFFFFFFFFFFFFFFFFFFFFFF8E
:10622000FFFFFFFFFFFFFFFFFFFFFFFF84100000E6
:106230000000000000006B4DFFDFFFFFFFFFFFFFCE
:10624000FFFFFFFFFFFFFFFFFFFFFFFFFFFFFFFF5E
:10625000FFFFFFFFFFFFFFFFFFFFFFFFFFFFFFFF4E
:10626000FFFFFFFFFFFFFFFFFFFFFFFFFFFFFFFF3E
:10627000FFFFFFFFBDD708612124DEDBFFFFFFFF2B
:10628000FFFFFFFFFFFFFFFFFFFFFFFFFFFFFFFF1E
:10629000FFFFFFFFFFFFFFFFFFFFFFFFFFFFFFFF0E
:1062A000FFFFFFFFCE7918C30000000000002104AB
:1062B000D69AFFFFFFFFFFFFFFFFFFFFFFFFFFFF7C
:1062C000FFFFFFFFFFFFFFFFFFFFFFFFFFFFFFFFDE
:1062D000FFFFFFFFFFFFFFFFFFFFFFFFFFFFFFFFCE
:1062E000FFFFFFFFFFFFFFFFFFFFFFDF632C00004B
:1062F000630CFFDFFFFFFFFFFFFFFFFFFFFFFFFF5D
:10630000FFFFFFFFFFFFFFFFFFFFFFFFFFFFFFFF9D
:10631000FFFFFFFFFFFFFFFFFFFFFFFFF79E42288A
:1063200000000000000000007BEFFFFFFFFFFFFF09
:10633000FFFFFFFFFFFFFFFFFFFFFFFFFFFFFFFF6D
:10634000FFFFFFFFFFFFFFFFFFFFFFFFFFFFFFFF5D
:10635000FFFFFFFFFFFFFFFFFFFFFFFFFFFFFFFF4D
:10636000FFFFA534108200008410FFFFFFFFFFFF36
:10637000FFFFFFFFFFFFFFFFFFFFFFFFFFFFFFFF2D
:10638000FFFFFFFFFFFFFFFFFFFFFFFFFFFFFFFF1D
:10639000FFFFFFFFFFFF632C000000000000000074
:1063A00018E3BDD7FFFFFFFFFFFFFFFFFFFFFFFF6A
